:020000040800F2
:100000000000022095190008E5190008E51900080C
:10001000E5190008E5190008E519000800000000CE
:10002000000000000000000000000000E5190008CA
:10003000E519000800000000E5190008E5190008AE
:10004000E5190008E5190008E5190008E519000898
:1000500000000000E5190008E9140008E51900088F
:10006000E5190008E5190008E5190008E519000878
:10007000E5190008E5190008E5190008E519000868
:10008000E5190008E5190008E5190008E519000858
:10009000E5190008E5190008E5190008E519000848
:1000A000E5190008E5190008E5190008E519000838
:1000B000E5190008E5190008E5190008E519000828
:1000C000E5190008E5190008E5190008E519000818
:1000D000E5190008FD150008E5190008E5190008F4
:1000E000E5190008E5190008E5190008E5190008F8
:1000F000E5190008E5190008E5190008E5190008E8
:10010000E5190008E5190008E5190008E5190008D7
:10011000E5190008E5190008E5190008E5190008C7
:10012000E5190008E5190008E5190008E5190008B7
:10013000E5190008E5190008E5190008E5190008A7
:10014000E5190008E5190008E5190008E519000897
:10015000E5190008E5190008E5190008E519000887
:10016000E5190008E5190008E5190008E519000877
:10017000E5190008E5190008E5190008E519000867
:08018000E5190008E51900086B
:1001900010B5054C237833B9044B13B10448AFF3C1
:1001A00000800123237010BDF00B00200000000030
:1001B0006861000808B5034B1BB103490348AFF35E
:1001C000008008BD00000000F40B002068610008FA
:1001D00001F0FF01102A2BDB10F0070F08D010F8F8
:1001E000013B013A8B422DD010F0070F42B3F6D1FC
:1001F000F0B441EA012141EA014122F007047FF015
:1002000000070023F0E80256083C85EA010586EA6B
:10021000010685FA47F5A3FA87F586FA47F6A5FAA7
:1002200087F68EB9EED1F0BC01F0FF0102F00702B3
:1002300032B110F8013B013A83EA010313B1F8D15E
:100240000020704701387047002D06BF354603383F
:10025000073815F0010F07D1013015F4807F02BF78
:10026000013015F4C03F0130F0BC0138704700BFC9
:10027000034613F8012B002AFBD1181A01387047E6
:1002800081F0004102E000BF83F0004330B54FEA47
:1002900041044FEA430594EA050F08BF90EA020FB4
:1002A0001FBF54EA000C55EA020C7FEA645C7FEA47
:1002B000655C00F0E2804FEA5454D4EB5555B8BF6A
:1002C0006D420CDD2C4480EA020281EA030382EADB
:1002D000000083EA010180EA020281EA0303362D6D
:1002E00088BF30BD11F0004F4FEA01314FF4801C40
:1002F0004CEA113102D0404261EB410113F0004F52
:100300004FEA03334CEA133302D0524263EB430308
:1003100094EA050F00F0A780A4F10104D5F1200EA6
:100320000DDB02FA0EFC22FA05F2801841F1000101
:1003300003FA0EF2801843FA05F359410EE0A5F1D5
:1003400020050EF1200E012A03FA0EFC28BF4CF006
:10035000020C43FA05F3C01851EBE37101F00045BC
:1003600007D54FF0000EDCF1000C7EEB00006EEBC9
:100370000101B1F5801F1BD3B1F5001F0CD3490853
:100380005FEA30004FEA3C0C04F101044FEA4452AA
:1003900012F5800F80F09A80BCF1004F08BF5FEA31
:1003A000500C50F1000041EB045141EA050130BD11
:1003B0005FEA4C0C404141EB0101013C28BFB1F523
:1003C000801FE9D291F0000F04BF01460020B1FA6E
:1003D00081F308BF2033A3F10B03B3F120020CDA41
:1003E0000C3208DD02F1140CC2F10C0201FA0CF01F
:1003F00021FA02F10CE002F11402D8BFC2F1200C84
:1004000001FA02F120FA0CFCDCBF41EA0C01904039
:10041000E41AA2BF01EB0451294330BD6FEA040482
:100420001F3C1CDA0C340EDC04F11404C4F120026D
:1004300020FA04F001FA02F340EA030021FA04F37F
:1004400045EA030130BDC4F10C04C4F1200220FAD6
:1004500002F001FA04F340EA0300294630BD21FA14
:1004600004F0294630BD94F0000F83F4801306BFDA
:1004700081F480110134013D4EE77FEA645C18BFCE
:100480007FEA655C29D094EA050F08BF90EA020F65
:1004900005D054EA000C04BF1946104630BD91EA5D
:1004A000030F1EBF0021002030BD5FEA545C05D160
:1004B0004000494128BF41F0004130BD14F580049F
:1004C0003CBF01F5801130BD01F0004545F0FE4113
:1004D00041F470014FF0000030BD7FEA645C1ABF48
:1004E000194610467FEA655C1CBF0B46024650EA7F
:1004F000013406BF52EA033591EA030F41F40021AB
:1005000030BD00BF90F0000F04BF0021704730B530
:100510004FF4806404F132044FF000054FF0000105
:1005200050E700BF90F0000F04BF0021704730B5C6
:100530004FF4806404F1320410F0004548BF40429B
:100540004FF000013EE700BF42004FEAE2014FEAF0
:1005500031014FEA02701FBF12F07F4393F07F4FCB
:1005600081F06051704732F07F4208BF704793F0CE
:100570007F4F04BF41F40021704730B54FF46074E1
:1005800001F0004521F000411CE700BF50EA0102E4
:1005900008BF704730B54FF000050AE050EA01028D
:1005A00008BF704730B511F0004502D5404261EBFD
:1005B00041014FF4806404F132045FEA915C3FF43E
:1005C000D8AE4FF003025FEADC0C18BF03325FEADB
:1005D000DC0C18BF033202EBDC02C2F1200300FA8C
:1005E00003FC20FA02F001FA03FE40EA0E0021FAB1
:1005F00002F11444BDE600BF70B54FF0FF0C4CF49F
:10060000E06C1CEA11541DBF1CEA135594EA0C0F50
:1006100095EA0C0F00F0DEF82C4481EA030621EA8B
:100620004C5123EA4C5350EA013518BF52EA0335C6
:1006300041F4801143F4801338D0A0FB02CE4FF078
:100640000005E1FB02E506F00042E0FB03E54FF0A8
:100650000006E1FB03569CF0000F18BF4EF0010EA0
:10066000A4F1FF04B6F5007F64F5407404D25FEA9C
:100670004E0E6D4146EB060642EAC62141EA55514F
:100680004FEAC52040EA5E504FEACE2EB4F1FD0C91
:1006900088BFBCF5E06F1ED8BEF1004F08BF5FEA0F
:1006A000500E50F1000041EB045170BD06F00046C1
:1006B00046EA010140EA020081EA0301B4EB5C046E
:1006C000C2BFD4EB0C0541EA045170BD41F4801166
:1006D0004FF0000E013C00F3AB8014F1360FDEBF8B
:1006E000002001F0004170BDC4F10004203C35DA67
:1006F0000C341BDC04F11404C4F1200500FA05F3EA
:1007000020FA04F001FA05F240EA020001F000428A
:1007100021F0004110EBD37021FA04F642EB060100
:100720005EEA430E08BF20EAD37070BDC4F10C042A
:10073000C4F1200500FA04F320FA05F001FA04F2EE
:1007400040EA020001F0004110EBD37041F10001DA
:100750005EEA430E08BF20EAD37070BDC4F12005E5
:1007600000FA05F24EEA020E20FA04F301FA05F24D
:1007700043EA020321FA04F001F0004121FA04F2F5
:1007800020EA020000EBD3705EEA430E08BF20EAC5
:10079000D37070BD94F0000F0FD101F000464000FF
:1007A00041EB010111F4801F08BF013CF7D041EA81
:1007B000060195F0000F18BF704703F00046520085
:1007C00043EB030313F4801F08BF013DF7D043EA56
:1007D0000603704794EA0C0F0CEA135518BF95EA0C
:1007E0000C0F0CD050EA410618BF52EA4306D1D193
:1007F00081EA030101F000414FF0000070BD50EAB2
:10080000410606BF1046194652EA430619D094EA3B
:100810000C0F02D150EA013613D195EA0C0F05D125
:1008200052EA03361CBF104619460AD181EA030179
:1008300001F0004141F0FE4141F470014FF0000031
:1008400070BD41F0FE4141F4780170BD70B54FF0CC
:10085000FF0C4CF4E06C1CEA11541DBF1CEA13554C
:1008600094EA0C0F95EA0C0F00F0A7F8A4EB05042E
:1008700081EA030E52EA03354FEA013100F0888025
:100880004FEA03334FF0805545EA131343EA1263EE
:100890004FEA022245EA111545EA10654FEA0026A3
:1008A0000EF000419D4208BF964244F1FD0404F55C
:1008B000407402D25B084FEA3202B61A65EB0305B8
:1008C0005B084FEA32024FF480104FF4002CB6EB75
:1008D000020E75EB030E22BFB61A754640EA0C00F5
:1008E0005B084FEA3202B6EB020E75EB030E22BF35
:1008F000B61A754640EA5C005B084FEA3202B6EB76
:10090000020E75EB030E22BFB61A754640EA9C0034
:100910005B084FEA3202B6EB020E75EB030E22BF04
:10092000B61A754640EADC0055EA060E18D04FEAC2
:10093000051545EA16754FEA06164FEAC30343EA62
:1009400052734FEAC2025FEA1C1CC0D111F4801F2F
:100950000BD141EA00014FF000004FF0004CB6E728
:1009600011F4801F04BF01430020B4F1FD0C88BFC7
:10097000BCF5E06F3FF6AFAEB5EB030C04BFB6EBD2
:10098000020C5FEA500C50F1000041EB045170BDC5
:100990000EF0004E4EEA113114EB5C04C2BFD4EBF2
:1009A0000C0541EA045170BD41F480114FF0000E76
:1009B000013C90E645EA060E8DE60CEA135594EAF2
:1009C0000C0F08BF95EA0C0F3FF43BAF94EA0C0FF5
:1009D0000AD150EA01347FF434AF95EA0C0F7FF46A
:1009E00025AF104619462CE795EA0C0F06D152EABE
:1009F00003353FF4FDAE1046194622E750EA4106A2
:100A000018BF52EA43067FF4C5AE50EA41047FF4B2
:100A10000DAF52EA43057FF4EBAE12E74FF0FF3C17
:100A200006E000BF4FF0010C02E000BF4FF0010CE8
:100A30004DF804CD4FEA410C7FEA6C5C4FEA430C61
:100A400018BF7FEA6C5C1BD001B050EA410C0CBFB0
:100A500052EA430C91EA030F02BF90EA020F002012
:100A6000704710F1000F91EA030F58BF994208BF79
:100A700090422CBFD8176FEAE37040F00100704736
:100A80004FEA410C7FEA6C5C02D150EA013C07D18D
:100A90004FEA430C7FEA6C5CD6D152EA033CD3D0D8
:100AA0005DF8040B704700BF8446104662468C46D2
:100AB0001946634600E000BF01B5FFF7B7FF002805
:100AC00048BF10F1000F01BD4DF808EDFFF7F4FF2E
:100AD0000CBF012000205DF808FB00BF4DF808EDB9
:100AE000FFF7EAFF34BF012000205DF808FB00BFDC
:100AF0004DF808EDFFF7E0FF94BF012000205DF8FE
:100B000008FB00BF4DF808EDFFF7CEFF94BF0120B2
:100B100000205DF808FB00BF4DF808EDFFF7C4FFAB
:100B200034BF012000205DF808FB00BF4FEA410CF4
:100B30007FEA6C5C02D150EA013C0AD14FEA430CD7
:100B40007FEA6C5C02D152EA033C02D14FF0000014
:100B500070474FF0010070474FEA410212F5001252
:100B600015D211D56FF47873B3EB625212D94FEAF4
:100B7000C12343F0004343EA505311F0004F23FADE
:100B800002F018BF404270474FF00000704750EA33
:100B9000013005D111F0004008BF6FF000407047F0
:100BA0004FF00000704700BF4A0011D212F500124A
:100BB00011D20DD56FF47873B3EB62520ED44FEAB5
:100BC000C12343F0004343EA505323FA02F0704735
:100BD0004FF00000704750EA013002D14FF0FF3073
:100BE00070474FF0000070474FEA4102B2F1E04316
:100BF00024BFB3F5001CDCF1FE5C0DD901F0004C04
:100C00004FEAC0024CEA5070B2F1004F40EB830053
:100C100008BF20F00100704711F0804F21D113F17F
:100C20003872BCBF01F00040704741F480114FEAB8
:100C30005252C2F11802C2F1200C10FA0CF320FA41
:100C400002F018BF40F001004FEAC1234FEAD3235E
:100C500003FA0CFC40EA0C0023FA02F34FEA4303C8
:100C6000CCE77FEA625307D150EA01331EBF4FF051
:100C7000FE4040F44000704701F0004040F0FE406C
:100C800040F40000704700BF38B50022002304463E
:100C90000D46FFF723FF28B920462946BDE8384016
:100CA00000F00AB8204605F1004100F005F8404286
:100CB00061EB410138BD00BFD0B50C4B00220646A8
:100CC0000F46FFF799FCFFF76FFF0446FFF71AFC8A
:100CD000074B0022FFF790FC02460B463046394690
:100CE000FFF7D2FAFFF760FF2146D0BD0000F03DCC
:100CF0000000F04180B485B000AF78600023FB6055
:100D00000CE00023BB6002E0BB680133BB60BB6842
:100D1000B3F5C86FF8DBFB680133FB60FA687B68EA
:100D20009A42EEDB00BF00BF1437BD465DF8047B7E
:100D30007047000080B582B000AF00237B600CE0FC
:100D40000A4A7B689B0013441B68094A1360092008
:100D5000FFF7D0FF7B6801337B607B681C2BEFDDE6
:100D600000BF00BF0837BD4680BD00BFB4090020EA
:100D7000240C002080B487B000AFF860B9607A60BE
:100D80004FF000037B6100233B610EE03B699B0059
:100D9000FA681344D3ED007A97ED057A77EE277A57
:100DA000C7ED057A3B6901333B613A69BB689A42FA
:100DB000ECD3BB6807EE903AB8EE677AD7ED056AD8
:100DC000C6EE877A7B68C3ED007A00BF1C37BD464C
:100DD0005DF8047B704780B588B000AFF860B960FB
:100DE0007A604FF00003FB614FF000037B6107F175
:100DF00014031A46B968F868FFF7BCFF0023BB610B
:100E00001EE0BB699B00FA68134493ED007AD7EDAE
:100E1000057A37EE677ABB699B00FA681344D3ED15
:100E2000006AD7ED057A76EEE77A67EE277A97EDD6
:100E3000077A77EE277AC7ED077ABB690133BB6182
:100E4000BA69BB689A42DCD3BB68013B07EE903AB3
:100E5000B8EE677AD7ED076AC6EE877A7B68C3ED8E
:100E6000007A00BF2037BD4680BD80B586B000AF98
:100E7000F860B9607A604FF000037B6107F11403FA
:100E80001A46B968F868FFF7A6FFD7ED057AB0EE05
:100E9000670A05F047F9F0EE407A7B68C3ED007A07
:100EA00000BF1837BD4680BDB0B58AB002AFF8604C
:100EB000B9607A603B603A683B6B1344013B3B612D
:100EC0004FF00003FB610023BB6144E04FF00003DF
:100ED000FB6100237B6131E07B699B00BA681344AE
:100EE00093ED007ABA697B69D31A9B00FA681344C0
:100EF000D3ED007A67EE277A97ED077A77EE277AB7
:100F0000C7ED077AF869FFF71FFB04460D467B69BA
:100F10009B00BA6813441B681846FFF715FB02468E
:100F20000B46CDE9002322462B460F4800F094FBE8
:100F30006420FFF7DFFE7B6901337B617A693B6BDD
:100F40009A42C9D3BB699B007A681344FA691A6054
:100F5000BB690133BB61BA693B699A42B6D300BF32
:100F600000BF2037BD46B0BD8061000880B500AF2E
:100F7000084B5B6903F00103002B08D0054B5B694C
:100F8000044A43F001035361002000F005F800BF5C
:100F900080BD00BF003C014080B483B000AF034679
:100FA000FB7100BF0C37BD465DF8047B7047000045
:100FB00080B483B000AF78600B46FB70FB78012BE8
:100FC00062D17B68644A934206D1644B1B6B634ACF
:100FD00043F001031363B9E07B68614A934206D191
:100FE0005E4B1B6B5D4A43F002031363AEE07B680C
:100FF0005C4A934206D1594B1B6B584A43F0040399
:101000001363A3E07B68584A934206D1534B1B6B92
:10101000524A43F00803136398E07B68534A9342B3
:1010200006D14E4B1B6B4D4A43F0100313638DE00A
:101030007B684F4A934206D1484B1B6B474A43F0AB
:101040002003136382E07B684A4A934206D1434BF4
:101050001B6B424A43F04003136377E07B68464AC8
:10106000934206D13D4B1B6B3C4A43F08003136314
:101070006CE07B68414A934268D1384B1B6B374A1E
:1010800043F48073136361E07B68334A934206D173
:10109000324B1B6B314A23F00103136356E07B682C
:1010A0002F4A934206D12D4B1B6B2C4A23F002038F
:1010B00013634BE07B682B4A934206D1274B1B6B93
:1010C000264A23F00403136340E07B68264A9342D8
:1010D00006D1224B1B6B214A23F00803136335E032
:1010E0007B68224A934206D11C4B1B6B1B4A23F0A0
:1010F000100313632AE07B681D4A934206D1174B05
:101100001B6B164A23F0200313631FE07B68194A08
:10111000934206D1114B1B6B104A23F0400313631B
:1011200014E07B68144A934206D10C4B1B6B0B4AAC
:1011300023F08003136309E07B68104A934205D1D2
:10114000064B1B6B054A23F48073136300BF0C37F7
:10115000BD465DF8047B7047000002400038024045
:101160000004024000080240000C0240001002404F
:101170000014024000180240001C024000200240FF
:1011800080B586B000AF786000237B617B681B6808
:1011900001211846FFF70CFF7B685B79032B20D8F1
:1011A0007B685B791A467B681B795B0002FA03F364
:1011B0007B617B681B681A687B681B795B00032175
:1011C00001FA03F3DB4319467B681B680A401A6087
:1011D0007B681B6819687B681B687A690A431A6018
:1011E000CBE07B685B79042B17D14B4BDB687A68CB
:1011F0001279114601228A401146474A0B43D360B7
:10120000454B9B687A681279114601228A40D24385
:101210001146414A0B40936035E07B685B79052BB2
:1012200017D13D4B9B687A681279114601228A409A
:101230001146394A0B439360374BDB687A68127961
:10124000114601228A40D2431146334A0B40D360F3
:1012500019E07B685B79062B15D12F4B9B687A6868
:101260001279114601228A4011462B4A0B439360A2
:10127000294BDB687A681279114601228A401146AF
:10128000254A0B43D3607B681B799B08FB747B6802
:101290001B7903F00303BB747B681B681F4A9342EE
:1012A0004ED07B681B681E4A934232D07B681B6815
:1012B0001C4A93422BD07B681B681B4A934224D064
:1012C0007B681B68194A93421DD07B681B68184ACB
:1012D000934216D07B681B68164A93420FD07B68F6
:1012E0001B68154A934208D07B681B68134A9342D7
:1012F00001D1082325E0FF2323E0072321E0062373
:101300001FE005231DE004231BE0032319E0022353
:1013100017E0012315E000BF003C0140000002403F
:101320000004024000080240000C0240001002408D
:101330000014024000180240001C0240002002403D
:1013400000237B74594B5B6B584A23F480435363EF
:101350007A7CBB7C9B0002FA03F1554AFB7C02338A
:1013600042F82310534B1B687A6812791146012208
:101370008A4011464F4A0B4313607B689B791A469B
:101380007B681B795B0002FA03F37B617B681B6857
:101390009A687B681B795B00032101FA03F3DB4346
:1013A00019467B681B680A409A607B681B689968CD
:1013B0007B681B687A690A439A607B68DB791A4606
:1013C0007B681B795B0002FA03F37B617B681B6817
:1013D000DA687B681B795B00032101FA03F3DB43C6
:1013E00019467B681B680A40DA607B681B68D9680D
:1013F0007B681B687A690A43DA607B681B7A1A4645
:101400007B681B7902FA03F37B617B681B685A686F
:101410007B681B79194601238B40DB4319467B68A7
:101420001B680A405A607B681B6859687B681B68A8
:101430007A690A435A607B685B79022B31D17B68F9
:101440001B79DB083B747B681B7903F00703FB7394
:101450007B681B683A7C083253F82210FB7B9B00A8
:101460000F2202FA03F3DB4318467B681B683A7CC1
:101470000140083243F822107B681B683A7C08322E
:1014800053F822107B685B7A1A46FB7B9B0002FABA
:1014900003F318467B681B683A7C0143083243F823
:1014A000221000BF1837BD4680BD00BF0038024083
:1014B00000380140003C014080B483B000AF786048
:1014C0000B46FB707B681B685A69FB78012101FAA7
:1014D00003F319467B681B684A405A6100BF0C370A
:1014E000BD465DF8047B704780B500AFFFF73EFD59
:1014F00000BF80BD80B400AF064BD3F88830054AEA
:1015000043F47003C2F8883000BFBD465DF8047B29
:10151000704700BF00ED00E080B485B000AF124B13
:10152000FB60124BBB60124B7B60124B3B60FB6855
:101530001B6843F01002FB681A60BB6800221A6047
:101540007B688B221A60BB6842F22C021A603B68EF
:101550001B6843F020023B681A6000BF1437BD4689
:101560005DF8047B704700BF443802400C10014016
:101570000810014004E100E080B485B000AF0346EC
:10158000FB710D4BFB600D4BBB6000BFFB681B6824
:10159000DB0903F00103002BF8D0FA79BB681A606D
:1015A000FB681B6823F04002FB681A6000BF143719
:1015B000BD465DF8047B70470010014004100140F7
:1015C00080B584B000AF78607868FEF751FEB860EF
:1015D0000023FB6009E07A68FB6813441B78184617
:1015E000FFF7CAFFFB680133FB60FA68BB689A42E9
:1015F000F1D300BF00BF1037BD4680BD80B582B0BB
:1016000000AF104B7B60104B3B607B681B685B0935
:1016100003F00103012B11D13B681A680B4B1B68C7
:10162000D1B20B4AD154094B1B68013303F01F039D
:10163000064A13600C210748FFF73EFF00BF08373A
:10164000BD4680BD0010014004100140C4110020BF
:10165000A41100200C0C00200FB480B5AAB000AF7C
:1016600007F1B403C7F8A03007F1B403C7F8A030FE
:101670003846D7F8A030D7F8B020A02101F06CF997
:10168000C7F8A400D7F8A430002B0BDDD7F8A4309E
:10169000A02B02DDA023C7F8A4303B461846FFF775
:1016A0008FFF00E000BFA837BD46BDE8804004B012
:1016B0007047000080B582B002AFFFF71BFF334BCD
:1016C000334A1A60314B0D221A71304B01225A7184
:1016D0002E4B00221A722D4B0022DA712B4B032263
:1016E0009A712A48FFF74CFD284B0C221A712748A3
:1016F000FFF746FD254B0E221A712448FFF740FDE7
:10170000224B0F221A712148FFF73AFD214B224A42
:101710001A60204B02225A711E4B07225A721D4B2F
:1017200000221A721B4B0122DA711A4B06221A711F
:101730001848FFF725FD174B07221A711548FFF7C8
:101740001FFDFFF7E9FE154A40F22D111448FFF77F
:1017500011FB144A40F22D111148FFF73CFB124ACD
:1017600040F22D110E48FFF780FBFFF7E3FA1D232F
:1017700000934FF4A0730D4A0D490E48FFF794FBF8
:101780004FF47A70FFF7B6FA00BFEEE70C0C0020BA
:10179000000C0240180C00200004024098110020A8
:1017A00000000020A01100209C110020280C002027
:1017B000B4090020B404002080B483B000AF034615
:1017C000FB710F4B1B680E4A43F0807313600D4B87
:1017D0001B680C4A43F00103136000BF4FF06043E5
:1017E0001B6803F00103002BF8D04FF06042FB7937
:1017F000136000BF0C37BD465DF8047B704700BF27
:10180000FCED00E0000E00E080B400AF01231846BC
:10181000BD465DF8047B704780B582B000AF78604C
:10182000396001F0F9F8034616221A604FF0FF33D1
:1018300018460837BD4680BD80B582B000AF7860DD
:101840004FF0FF317868FFF7E7FF00BFFDE780B595
:1018500086B000AFF860B9607A6000237B610AE06F
:10186000AFF300800146BB685A1CBA60CAB21A7056
:101870007B6901337B617A697B689A42F0DB7B6824
:1018800018461837BD4680BD80B586B000AFF860F9
:10189000B9607A6000237B6109E0BB685A1CBA60BA
:1018A0001B781846FFF788FF7B6901337B617A69F3
:1018B0007B689A42F1DB7B6818461837BD4680BDCD
:1018C00080B483B000AF78604FF0FF3318460C3718
:1018D000BD465DF8047B704780B483B000AF78608C
:1018E00039603B684FF400525A60002318460C37A9
:1018F000BD465DF8047B704780B483B000AF78606C
:10190000012318460C37BD465DF8047B704780B450
:1019100085B000AFF860B9607A60002318461437CC
:10192000BD465DF8047B704780B586B000AF786037
:10193000144A154BD31A7B617B693B61134B1B68BF
:10194000002B02D1114B124A1A60104B1A687B68A7
:1019500013443A699A4207D201F05EF803460C221A
:101960001A604FF0FF3309E0084B1B68FB60074B20
:101970001A687B681344054A1360FB6818461837D9
:10198000BD4680BD0000022000040000C8110020F8
:10199000181300200D488546AFF300800C480D4910
:1019A0000D4A002302E0D458C4500433C4188C42BA
:1019B000F9D30A4A0A4C002301E013600432A24220
:1019C000FBD301F02FF8FFF775FEFEE700000220C1
:1019D00000000020F00B0020C4650008F00B002080
:1019E00018130020FEE72DE9FF4757EC106B002F7E
:1019F0000C4619463B46BBBF07F100431F46002378
:101A00002D230B700D9BDDF830A0914623F02008AC
:101A1000BCBF32461646B8F1460F05D0B8F1450FA7
:101A200000D10134022100E0032103AB019302AB9A
:101A3000009347EC106B5346224601F0A9F8B8F129
:101A4000470F054619D119F0010F0ED000EB04091C
:101A50000022002330463946FFF736F808B1CDF8AA
:101A60000C903022039B4B451ED3039B0E9A5B1BAD
:101A70002846136004B0BDE8F087B8F1460F00EBCC
:101A80000409E5D10378302B0AD100220023304627
:101A90003946FFF719F818B9C4F10104CAF8004033
:101AA000DAF800309944D3E7591C03911A70D9E74A
:101AB000F7B50029BABF49422D232B23092902700B
:101AC000437029DD0DF107031D460A271A46B1FBB5
:101AD000F7F607FB1614303402F8014C0C46632C61
:101AE00003F1FF333146F1DC3031941E03F8011C61
:101AF000411C2346AB420AD30DF109039B1AAC42A9
:101B000088BF002302330344181A03B0F0BD13F852
:101B1000016B01F8016FEDE7302330318370C17044
:101B2000031DF1E72DE9F04F8DB00C46DDF858802C
:101B300016461F46054600F025FF03680493184625
:101B4000FEF796FB00230A93D8F800300590073380
:101B500023F0070303F1080294F818A0D4F800B0AA
:101B6000C8F80020D3E9008929F000430793CDF895
:101B70001880C4E91289DDE906019C4B4FF0FF3261
:101B8000FEF7D4FF70BBDDE90601984B4FF0FF3242
:101B9000FEF7AEFF30BB0022002340464946FEF769
:101BA0009DFF10B12D2384F84330914A914BBAF137
:101BB000470F8CBF90469846032323612BF0040304
:101BC00023604FF00009009733460BAA21462846B0
:101BD00000F0D2F9013040F08D804FF0FF300DB0B1
:101BE000BDE8F08F42464B4640464946FEF79EFF11
:101BF00040B14B46002BBCBF2D2384F843307E4AB6
:101C00007E4BD4E763680AF0DF0206925A1C3BD190
:101C1000062363604BF480620023226003930AABC7
:101C2000CDE901A309AB0093616849EC108B0DF17C
:101C300023032846FFF7D7FE069B0999472B8046CA
:101C400029D1C81C02DB6368994241DDAAF1020A6E
:101C50005FFA8AFA0139524604F150000991FFF700
:101C600027FF0A9A1318012A8146236102DC2268A1
:101C7000D20701D5013323619DF82330002BA2D078
:101C80002D2384F843309EE7069A472AC2D1002BC1
:101C9000C0D10123BDE7BAF1650FDBD9BAF1660FF8
:101CA00018D1002963680BDD216113B92268D007C0
:101CB00002D501330B442361A1654FF00009DBE736
:101CC00013B92268D20701D50233F4E70123F2E702
:101CD0004FF0670A0A9B994205DB23682161D80708
:101CE000EAD54B1CE7E70029D4BFC1F1020201226B
:101CF0001344E0E723685A0507D423694246314676
:101D00002846B84701302BD167E7BAF1650F40F29A
:101D1000DD80D4E9120100220023FEF7D5FE002861
:101D200033D0374A012331462846B84701303FF4C3
:101D300054AFDDE90938434502DB2368D8070FD5E6
:101D4000DDE9042331462846B84701303FF445AF6A
:101D50004FF0000908F1FF3804F11A0AC84509DC00
:101D600023689B0700F10381E0680B9B9842B8BF92
:101D7000184634E70123524631462846B847013019
:101D80003FF42BAF09F10109E8E7099B002B39DC8F
:101D90001B4A012331462846B84701303FF41DAFA6
:101DA000DDE9093959EA030302D12368D907D7D5F8
:101DB000DDE9042331462846B84701303FF40DAF32
:101DC0004FF0000A04F11A0B099B5B42534501DCFA
:101DD0004B4693E701235A4631462846B84701301F
:101DE0003FF4FBAE0AF1010AEEE700BFFFFFEF7F11
:101DF000906100088C6100089861000894610008F7
:101E00009C610008A36DDDF828A05345A8BF534688
:101E1000002B994636DC4FF0000B29EAE97904F1F2
:101E20001A02A36D0693A3EB09035B4531DC099B02
:101E30009A453ADC2368DA0737D4099BAAEB0309F1
:101E4000069BAAEB03039945A8BF9946B9F1000F79
:101E500033DC4FF0000829EAE97904F11A0B099BF9
:101E6000AAEB0303A3EB090343457FF779AF0123F3
:101E70005A4631462846B84701303FF4AEAE08F125
:101E80000108ECE7424631462846B8470130C2D146
:101E9000A3E60123314628460692B84701303FF4B5
:101EA0009CAE069A0BF1010BBBE7DDE9042331463A
:101EB0002846B8470130C0D18FE6069A4B464244C7
:101EC00031462846B8470130C3D186E6DDF828A060
:101ED000BAF1010F01DCDB0736D50123424631465A
:101EE0002846B84701303FF478AEDDE90423314697
:101EF0002846B84701303FF470AED4E91201002201
:101F000000230AF1FF3AFEF7DFFDC0B9534608F19E
:101F1000010231462846B84701300CD15DE6012365
:101F20005A4631462846B84701303FF456AE08F1CC
:101F30000108D045F3DB4B4604F15002DFE64FF0D9
:101F4000000804F11A0BF4E701234246E1E70123FC
:101F50004A4631462846B84701303FF43EAE08F1C4
:101F60000108E3680B995B1A4345F0DCFCE64FF08F
:101F7000000804F11909F4E72DE9F04716469846E0
:101F80008A680B69DDF820909342B8BF134633602E
:101F900091F8432007460C460AB1013333602368A9
:101FA000990642BF336802333360256815F0060591
:101FB00006D104F1190AE36832689B1AAB4226DCA9
:101FC00094F843302268003B18BF012392062BD4BB
:101FD00004F1430241463846C84701301ED0236809
:101FE000226903F00603042B02BFE5683368ED1A8B
:101FF000A3680CBF25EAE57500259342C4BF9B1A70
:10200000ED1800261A34B5421AD1002008E0012349
:10201000524641463846C847013003D14FF0FF30A1
:10202000BDE8F0870135C6E7E1185A1C302081F879
:102030004300224494F8451082F843100233C7E766
:102040000123224641463846C8470130E6D00136D2
:10205000D9E700002DE9FF470F7E0C9E782F9146AF
:1020600080460C469A4601F1430207D8622F0AD8EF
:10207000002F00F0D180582F00F0B88004F1420604
:1020800084F842703AE0A7F16303152BF6D801A15A
:1020900051F823F0ED200008012100087D20000800
:1020A0007D2000087D2000087D2000080121000817
:1020B0007D2000087D2000087D2000087D2000088C
:1020C000FF2100082B210008B92100087D2000080D
:1020D0007D200008212200087D2000082B21000817
:1020E0007D2000087D200008C121000833681A1DEA
:1020F0001B68326004F1420684F8423001239CE000
:1021000033682068191D3160060601D51D6803E09B
:102110004506FBD5B3F90050002D03DA2D236D429F
:1021200084F8433058480A2311E0216833680806D0
:1021300053F8045B02D4490648BFADB26F2F524832
:10214000336014BF0A230823002184F84310666813
:10215000A660002E05DB21682E4321F004012160DA
:102160004BD01646B5FBF3F103FB1157C75D06F8DC
:10217000017D2F46BB420D46F4D9082B0BD12368B5
:10218000DF0708D5236961689942DEBF302306F86E
:10219000013C06F1FF36921B2261CDF800A04B46B0
:1021A00003AA21464046FFF7E7FE01304AD14FF02F
:1021B000FF3004B0BDE8F087236843F020032360BC
:1021C0003248782784F84570236831681F0651F833
:1021D000045B02D45F0648BFADB23160D90744BF8B
:1021E00043F0200323601DB11023ADE72648E9E743
:1021F000236823F020032360F6E71646BDE7336823
:1022000025686169181D30602E061B6801D51960AC
:1022100002E06806FBD51980002323611646BCE75F
:1022200033681A1D32601E68626800213046FDF76F
:10223000CFFF08B1801B606063682361002384F8CE
:102240004330AAE72369324649464046D047013029
:10225000ADD023689B0713D4E068039B9842B8BFB6
:102260001846A6E70123324649464046D04701308A
:102270009DD00135E36803995B1AAB42F2DCEBE7D2
:10228000002504F11906F5E79E610008AF6100081A
:102290002DE9F04F87B0914603938B685A1EB2F533
:1022A000AE7F81BF6FF4AE7503EB050B40F25D139B
:1022B0008B600B680A464FF0000543F4F06342F868
:1022C0001C3BCDE9045580460C4698BF4FF0000BEF
:1022D00001921646AA462F460295A2685AB1D9F82D
:1022E00000301B784E2B63D8402B3BD8A3F12B0139
:1022F000C8B20E2839D91FB1236823F48073236034
:102300000AF1FF3ABAF1010F00F21481019B9E42DB
:1023100000F20581012007B0BDE8F08FA3F1610252
:102320000D2AE8D801A151F822F000BF7524000859
:10233000F7220008F7220008F7220008D12400083D
:10234000AB240008F7220008F722000883240008C5
:10235000F7220008F7220008F7220008F7220008F9
:102360003F240008A3F14102DAE70E29C3D801A0F7
:1023700050F821F02F240008F72200082F2400082D
:10238000BF240008F7220008D12300081524000804
:102390001524000815240008152400081524000839
:1023A0001524000815240008152400081524000829
:1023B0006E2B09D8602BB1D8542B7BD0592B9AD1D6
:1023C000072D98D108252FE0742B73D0792BF6E7D1
:1023D0002168C8051ED521F0800121600137BBF1BD
:1023E000000F03D001320BF1FF3BA260A368013B59
:1023F000A360236901332361D9F80430013B002B2A
:10240000C9F8043040F38280D9F800300133C9F8AC
:10241000003062E71AEB05017FF46DAF226822F409
:10242000C07222600D468A4606F8013BDEE722684C
:1024300010067FF560AF22F080022260F4E7BAF167
:10244000000F0CD177B9226802F4E061B1F5E06FBA
:1024500008D122F4F06222604FF0010AE4E7BAF1F9
:10246000020F50D0012D02D0042D7FF444AF01356E
:10247000EDB2D9E7BAF1010F7FF43DAF4FF0020A98
:10248000D2E775B9002F7FF437AF226802F4E0611C
:10249000B1F5E06F40F0038122F4F0622260012583
:1024A000C2E7032DE3D0052DDFE7022D7FF423AF34
:1024B0000325B9E7062D7FF41EAF0725B4E7226890
:1024C00091057FF518AF22F4207222600297ABE7E6
:1024D000226802F4A061B1F5806F05D050057FF548
:1024E0000AAF002F00F0DB80910558BF029922F45B
:1024F000F06258BF791A42F4C07258BFCDE9041691
:102500002260002790E74FF0030A8DE7D4F880316E
:1025100049464046984700283FF4DFAEEBE6D4F842
:102520007C3116F8011D4A46404698472369013B15
:102530002361EBE66B1E062B24D8022D36D8019BB7
:102540009E427FF6E7AED4F87C3116F8011D4A466C
:10255000404698472369013B2361F0E7D4F87C317A
:102560001BF8011D4A46404698472369013B2361F9
:102570000AF1FF3A5FFA8AFABAF1020FEED1033D8F
:10258000EDB2761B2368DA0530D55B0511D5019BCA
:102590009E427FF6BFAED4F87C3116F8011D4A4644
:1025A000404698472369013B2361F0E7AA46B346BA
:1025B000DEE716F8011C2369652903F1FF3306F1F4
:1025C000FF3523610CD045290AD0D4F87C314A4626
:1025D00040469847236916F8021C013BB51E23614B
:1025E000D4F87C314A46404698472E46226812F07D
:1025F000100201D000208EE63270236803F4C0631D
:10260000B3F5806F25D1029B9F420AD0DA1B04F2FA
:102610006F139E4228BF04F5B7762249304600F07A
:1026200007F901990022404602F02EFC039B216825
:102630001B6811F0020F57EC106B03F1040215D068
:1026400003990A601B68C3E90067E3680133E3602C
:10265000D0E7049B002BE4D005990A2301314046C2
:1026600002F092FC049B059EC21AD0E711F0040F01
:1026700003990A60E6D11D6832463B46304639462A
:10268000FEF754FA28B1084800F0F4F985ED000A85
:10269000DBE730463946FEF7A7FA2860D5E7002782
:1026A0002EE600BFC061000801630008002310B5DA
:1026B0000446C0E90033C0E9043383608181436686
:1026C000C2818361194608225C3000F053F90D4B3A
:1026D00063620D4BA3620D4BE3620D4B23630D4B05
:1026E00024629C4206D003F16802944202D0D033A7
:1026F0009C4205D104F15800BDE8104000F0B6B985
:1027000010BD00BF7528000897280008CF280008D2
:10271000F3280008CC110020024A0349034800F0C6
:1027200069B800BF280A002045530008380A002075
:1027300041680C4B994210B5044601D002F002FEEC
:10274000A168094B994202D0204602F0FBFDE168E6
:10275000064B994204D02046BDE8104002F0F2BD7D
:1027600010BD00BFCC110020341200209C120020AC
:1027700010B50B4B0B4C0C4A1A602046002204216A
:10278000FFF794FF04F1680001220921FFF78EFF93
:1027900004F1D0000222BDE810401221FFF786BFED
:1027A00004130020CC11002019270008014800F074
:1027B0005EB900BF0D130020014800F059B900BFF9
:1027C0000D13002010B50446FFF7F0FF236A1BB17C
:1027D000BDE81040FFF7F0BF044B2362044B1B68B9
:1027E000002BF5D1FFF7C4FFF2E700BF3127000847
:1027F000041300202DE9F8430746884614460026B6
:10280000D4E90195B9F1010905D52468002CF7D167
:102810003046BDE8F883AB89012B07D9B5F90E30F6
:10282000013303D029463846C04706436835E9E7F7
:102830000EB410B59DB01FAB029006906FF0004132
:102840000A48079104910A4953F8042B0591002482
:1028500002A9006801931B9402F0F4FB029B1C7018
:102860001DB0BDE8104003B0704700BF340A00201F
:102870000802FFFF10B50C46B1F90E1000F0A8F8E1
:102880000028ABBF636DA3891B1823F48053ACBF32
:102890006365A38110BD2DE9F0411F468B89DB05DF
:1028A00005460C46164605D5B1F90E100223002246
:1028B00000F07CF8A389B4F90E1023F48053A381AF
:1028C00032463B462846BDE8F04100F093B810B5CB
:1028D0000C46B1F90E1000F069F8431CA38915BF2E
:1028E000606523F4805343F48053A38118BFA38110
:1028F00010BDB1F90E1000F049B830B51446002CE7
:102900009BB005461A4605DA8B2303604FF0FF3073
:102910001BB030BD4FF40273ADF80C304FF0000324
:10292000199314BF04F1FF332346029305934FF626
:10293000FF7300910491ADF80E3069461E9B02F0C2
:1029400081FB431CBCBF8B232B60002CE0D0009B81
:1029500000221A70DCE7000007B5009313460A4610
:10296000014603480068FFF7C8FF03B05DF804FBA9
:10297000340A002002440346934200D1704703F812
:10298000011BF9E700487047740B002038B5064D6D
:102990000023044608462B60FEF792FF431C02D139
:1029A0002B6803B1236038BD0813002038B5074DEC
:1029B00004460846114600222A601A46FEF7A7FF81
:1029C000431C02D12B6803B1236038BD08130020DB
:1029D00038B5074D04460846114600222A601A46BB
:1029E000FEF735FF431C02D12B6803B1236038BDCD
:1029F0000813002038B5074D04460846114600224A
:102A00002A601A46FEF740FF431C02D12B6803B12F
:102A1000236038BD08130020014B1868704700BFC1
:102A2000340A002070B50D4D0D4C641BA410002617
:102A3000A64209D10B4D0C4C03F096FB641BA4106D
:102A40000026A64205D170BD55F8043B98470136D3
:102A5000EEE755F8043B98470136F2E7BC650008FD
:102A6000BC650008BC650008C06500087047704779
:102A7000704700009FED010A704700BF0000C07F53
:102A80002DE9F74F03690C69A34207467EDB013C41
:102A900001F11408A30000F11405009305EB840371
:102AA000019358F8243055F8242001339A4208EB5A
:102AB0008409B2FBF3F62ED34FF0000AC446AE46AB
:102AC000D3465CF8043B98B206FB00A0020C1B0C3A
:102AD00006FB0323DEF8002080B292B2121A5A4499
:102AE000DEF800004FEA134A9BB2C3EB224303EB2C
:102AF000104392B242EA0342E1454EF8042B4FEAFA
:102B0000234BDED2009BEB582BB9019B043B9D422B
:102B10001A462FD33C61384601F0C6F9002825DB60
:102B20002946002058F8042BD1F800C01FFA82FE75
:102B30001FFA8CF3A3EB0E030344120CC2EB2342E7
:102B400002EB1C429BB243EA0243C14541F8043BFD
:102B50004FEA2240E6D255F8242005EB840322B93F
:102B6000043B9D421A460BD33C610136304603B00C
:102B7000BDE8F08F1268043B002ACBD1013CC6E7C8
:102B80001268043B002AEFD1013CEAE70020EEE79F
:102B90002DE9F04FC76997B08DED040B55EC104B44
:102BA000209E079181460C9211937FB9102000F06E
:102BB00009FE0246C9F81C0020B9A94BEF21A9481B
:102BC00002F03AFCC0E901770760C760D9F81C3011
:102BD000196859B15A684A60012393408B6048468E
:102BE00000F0E6FED9F81C3000221A602B1EB9BF97
:102BF00023F00043059300233360059F9A4BBCBF2D
:102C000001223260BB4312D1119A42F20F7313605A
:102C1000C7F31303234300F05A85219BDFF85CA21E
:102C2000002B00F05C850AF1030300F056BD9DED1A
:102C3000047B002251EC170B00238DED0A7BFDF77E
:102C400043FF804658B1119A01231360219B13B1B1
:102C5000219A864B1360DFF828A200F040BD9DED5D
:102C60000A0B14AA15A9484601F03EFAC7F30A5602
:102C70000290002E78D00B9BCDF84880C3F313034D
:102C8000DDE90A0143F07F5343F44013A6F2FF3617
:102C900019460022764BFDF7F7FA6BA3D3E9002320
:102CA000FDF7AAFC6AA3D3E90023FDF7EFFA044677
:102CB00030460D46FDF736FC67A3D3E90023FDF748
:102CC0009BFC02460B4620462946FDF7DFFA0446E8
:102CD0000D46FDF741FF0022074600232046294606
:102CE000FDF7FCFE40B13846FDF71CFC22462B46A2
:102CF000FDF7EAFE00B9013F162F52D85D4B03EBFA
:102D0000C703D3E90023DDE90A01FDF7E7FE002848
:102D100049D0013F00231093149B9B1B5A1E45BFB3
:102D2000C3F10103009300230023069254BF0093D4
:102D30000693002F39DB069B0D973B440693002337
:102D40000893079B092B63D8052BC4BF043B07934B
:102D5000079BA3F10203CCBF00240124032B63D8FB
:102D6000DFE803F05254372BDDE914631E4406F20A
:102D70003243202BC1BFC3F140039F4006F21243F0
:102D800024FA03F3D6BFC3F1200347EA030004FA91
:102D900003F0FDF7B7FB0122A1F1F873013E129297
:102DA00076E70123B7E71090B6E7009BDB1B0093A3
:102DB0007B42089300230D93C3E7012309930C9BE7
:102DC00007EB030B0BF10103012B0393B8BF0123A6
:102DD00006E0012309930C9B002B28DD9B460393FF
:102DE000D9F81C000021042202F114059D4226D9C5
:102DF0004160484600F09CFD8246002842D11E4BAF
:102E0000024640F2AF11DAE60023E3E70023D5E7FC
:102E100001240023079309944FF0FF3B0022CDF8D3
:102E20000CB012230C92DBE701230993F4E74FF077
:102E3000010BCDF80CB05B46CDF830B0D0E70131D6
:102E40005200D1E7AFF3008061436F63A787D23FA1
:102E5000B3C8608B288AC63FFB799F501344D33F89
:102E6000D2610008E96100080000F07F9D61000860
:102E70000000F83F9863000841620008CE61000836
:102E80009C610008D9F81C301860039B0E2B00F2DF
:102E9000A180002C00F09E80002F33DD9C4B07F0BA
:102EA0000F0203EBC20393ED007BF8058DED0E7B63
:102EB0004FEA271416D5974BDDE90A01D3E9082319
:102EC000FDF7C4FCCDE9040104F00F040326914D85
:102ED00054B9DDE90E23DDE90401FDF7B7FCCDE9C6
:102EE000040128E00226F2E7E10708D5DDE90E013A
:102EF000D5E90023FDF780FBCDE90E010136641012
:102F00000835E5E700F0AF807C42814B814D04F04D
:102F10000F0203EBC203D3E90023DDE90A01FDF749
:102F20006BFBCDE90401241100230226002C40F0A4
:102F30008F80002BD3D1109BDDE90445002B00F0DE
:102F40009480754B002220462946FDF7C7FD0028D6
:102F500000F08B80039B002B00F08780BBF1000FFB
:102F600034DD20466D4B00222946FDF745FBCDE9B7
:102F7000040107F1FF3801365C463046FDF7D2FA0E
:102F8000DDE90423FDF738FB654B0022FDF77EF9F0
:102F90000546A1F15076002C6AD1DDE90401614BB0
:102FA0000022FDF771F902460B46CDE904232A46BB
:102FB0003346FDF7B1FD002840F09882DDE90401B9
:102FC0002A4606F10043FDF789FD38BBDDE90A34E6
:102FD000CDE90434159B002BC0F257810E2F00F36E
:102FE00054814B4B03EBC70393ED007B0C9B002BF1
:102FF0008DED007B80F2E580039B002B00F3E180E8
:103000000CD1484B002251EC170BFDF7F5FADDE926
:103010000423FDF777FD002800F066820024254692
:103020000C9B56466FEA030800272146484600F0ED
:10303000BFFC002D00F0BD802FB1AF4203D0394658
:10304000484600F0B5FC2946484600F0B1FCB0E027
:10305000E20705D5D5E90023FDF7CEFA01360123B5
:103060006410083562E7022665E7039CB84684E7EA
:10307000274B099903EBC40353E902235444002965
:1030800054D029490020FDF7E1FB33462A46FDF7DD
:10309000FBF8CDE90E015646DDE90401FDF75CFDC4
:1030A0000546FDF73FFA02460B46DDE90401FDF750
:1030B000EBF8303502460B46CDE9042306F8015BF8
:1030C000DDE90E23FDF70AFD002872D1DDE90423B6
:1030D00011490020FDF7D8F8DDE90E23FDF7FEFCCD
:1030E000002840F0B480A6423FF470AFDDE90E0145
:1030F0000A4B0022FDF780FA084BCDE90E010022B1
:10310000DDE90401FDF778FACDE90401C4E700BF69
:1031100098630008706300080000F03F000024403E
:1031200000001C40000014400000E03F31462846EB
:10313000FDF762FACDE90E0113945646DDE904016C
:10314000FDF70AFD0546FDF7EDF902460B46DDE900
:103150000401FDF799F8303506F8015B02460B468D
:10316000A642CDE904234FF0000224D1AF4BDDE9A4
:103170000E01FDF78BF802460B46DDE90401FDF771
:10318000CBFC002863D1DDE90E23A8490020FDF720
:103190007BF802460B46DDE90401FDF79FFC0028A1
:1031A0003FF414AF139E731E139316F8013C302B9B
:1031B000F8D047463BE09E4BFDF71EFACDE90401EF
:1031C000BCE7DDE904455646DDE9002320462946F3
:1031D000FDF73CFBFDF7C0FC8046FDF7A3F9DDE9F8
:1031E0000023FDF709FA02460B462046294608F15E
:1031F0003004FDF749F806F8014B039DA6EB0A04DD
:10320000A54202460B4633D1FDF740F8DDE9002325
:1032100004460D46FDF780FCC0B9DDE900232046D9
:103220002946FDF751FC10B118F0010F0ED102999B
:10323000484600F0BDFB00233370119B01371F602F
:10324000219B002B00F04B821E6048E2B8463346BB
:103250001E4613F8012D392A06D19A45F8D130229D
:1032600008F101088AF800201A7801321A70A0E7E4
:103270006F4B0022FDF7C0F90022002304460D46E3
:10328000FDF722FC00289FD0D1E7099A002A00F020
:10329000EA80079A012A00F3CD80129A002A00F0F2
:1032A000C18003F23343089C009E009A1A440092A6
:1032B000069A01211A444846069200F077FC05461A
:1032C00066B1069B002B09DDB342009AA8BF3346C6
:1032D000D21A0092069AF61AD31A0693089B0BB3D9
:1032E000099B002B00F0C680002C00F0C08029460E
:1032F0002246484600F012FD029A0146054648461D
:1033000000F06AFC02998046484600F051FB089B99
:103310001B1B089300F0B180089A4146484600F014
:10332000FDFC02900121484600F040FC0D9B044644
:10333000002B00F0D8811A460146484600F0EEFC0A
:10334000079B012B044600F39F80049B002B40F059
:103350009780059BC3F31303002B40F09380059BDC
:1033600023F000431B0D1B0533B1009B0133009379
:10337000069B01330693012308930D9B002B00F05D
:10338000B881236904EB8303186900F0C3FBC0F123
:103390002000069B184410F01F0000F08280C0F14E
:1033A0002003042B73DD009BC0F11C000344009339
:1033B000069B034406440693009B002B05DD0299FF
:1033C0001A46484600F004FD0290069B002B05DDDE
:1033D00021461A46484600F0FBFC0446109B002B91
:1033E00061D00298214600F05FFD00285BDA0023DF
:1033F00002990A22484600F0FDFA099B029007F163
:10340000FF38002B00F07781294600230A22484626
:1034100000F0F0FABBF1000F05466FDC079B022BB2
:1034200049DC6BE0149BC3F136033CE70000E03F4E
:1034300000002440039B5C1E089BA34209DB1C1B6D
:10344000039B002BBFF630AF009B039A9E1A00230C
:103450002BE7089B0D9A0894E31A1A44009E039BDD
:103460000D92002421E7089C009E099D28E7DDF8C5
:10347000088051E7089A029950E7CDF8088051E793
:10348000002379E7049B77E70023089379E793D03B
:10349000009A1C331A440092069A1A441E4406925B
:1034A0008AE70346F4E7039B002BB84620DC9B46E3
:1034B000079B022B1EDDBBF1000F7FF4B1AD21464F
:1034C0005B460522484600F095FA014604460298FC
:1034D00000F0EAFC00287FF7A3AD5646312306F83A
:1034E000013B08F101089FE5039CB8462546F4E737
:1034F000DDF80CB0099B002B00F00181002E05DDEA
:1035000029463246484600F063FC0546089B002BDE
:103510005CD06968484600F00BFA064628B9824B31
:10352000024640F2EF21FFF74ABB2A6902329200BD
:1035300005F10C010C3001F069FF012231464846CB
:1035400000F046FC0AF1010300930AEB0B03089319
:10355000049B03F001032F4606930546009B029847
:10356000214603F1FF3BFFF78BFA0346303303900C
:1035700039460298099300F097FC2A4604902146A8
:10358000484600F0ADFCC268099B064602BB0146F6
:10359000029800F089FC099B0246314648460C928D
:1035A000099300F005FA079B0C9A009E42EA03017A
:1035B000069B1943099B0DD1392B27D0049A002A69
:1035C00001DD039B31338BF800302EE52846B9E747
:1035D0000122E2E70499002904DB079801430698D9
:1035E000014320D1002AEEDD0299009301224846D2
:1035F00000F0EEFB2146029000F056FC0028009BF4
:1036000002DCE0D1DA07DED5392BDAD139238BF8A9
:10361000003033461E46013B16F8012C392A4ED0A5
:1036200001321A7001E5002A03DD392BEED0013397
:10363000C9E7009A089902F8013C8A4228D0029909
:1036400000230A22484600F0D5F9AF4202904FF01D
:1036500000034FF00A023946484607D100F0CAF984
:1036600007460546009B0133009377E700F0C2F957
:103670002946074600230A22484600F0BBF90546C2
:10368000F0E7BBF1000FCCBF5E4601265644002791
:10369000029900930122484600F09AFB21460290CD
:1036A00000F002FC0028B4DC02D1009BDB07B0D4A0
:1036B00033461E4613F8012D302AFAD0B5E49A4558
:1036C000A8D1312308F101088AF80030ADE4219B2C
:1036D000DFF858A01BB10AF10803219A1360504685
:1036E00017B0BDE8F08F079B012B7FF72EAE0D9B27
:1036F000089301204DE6BBF1000F7FF7D9AE564687
:1037000002982146FFF7BCF900F1300306F8013BAF
:10371000A6EB0A029345B4DD029900230A2248462B
:1037200000F068F90290EBE741620008C56100080B
:1037300038B50546002941D051F8043C0C1F002B38
:10374000B8BFE41800F0E8F81D4A136833B96360A5
:1037500014602846BDE8384000F0E4B8A34208D918
:10376000206821188B4201BF19685B680918216025
:10377000EDE71A465B680BB1A342FAD911685018FD
:10378000A0420BD120680144501883421160E0D15F
:1037900018685B68536008441060DAE702D90C23AC
:1037A0002B60D6E7206821188B4204BF19685B683C
:1037B000636004BF091821605460CAE738BD00BFC8
:1037C00014130020024B0146186800F025B800BF12
:1037D000340A002070B50F4E0C463168054611B909
:1037E00001F004FE30602146284601F0FFFD431C35
:1037F00003D14FF0FF34204670BDC41C24F00304F5
:10380000A042F8D0211A284601F0F0FD0130F2D193
:10381000EFE700BF101300202DE9F843CD1C25F081
:10382000030508350C2D38BF0C25002D064601DB9D
:10383000A94204D90C2333600020BDE8F883DFF8E7
:10384000D48000F069F8D8F800301C4644BB294603
:103850003046FFF7BFFF431C044658D1D8F800405C
:103860002746002F43D1002C4BD0236839463046E1
:1038700004EB030901F0BAFD814542D121686D1ABC
:1038800029463046FFF7A6FF01303AD023682B4483
:103890002360D8F800305A6862BBC8F800700FE0A7
:1038A0002268521B20D40B2A17D96119A342256024
:1038B00018BF5960636808BFC8F8001062514B60B8
:1038C000304600F02FF804F10B00231D20F0070014
:1038D000C21A1CBF1B1AA350AFE76268A3420CBFF9
:1038E000C8F800205A60EBE723466468AEE73C4620
:1038F0007F68B6E71A465B68A342FBD1002353609A
:10390000DEE70C233360304600F00CF894E70560E6
:10391000D6E700BF141300200148FFF7A8B800BF86
:103920000C1300200148FFF7A3B800BF0C130020C0
:1039300070B5C66904460D4676B91020FFF742FF00
:103940000246E06120B9184B18486B2101F074FD64
:10395000C0E901660660C660E669F36883B1E369A1
:10396000DB6853F82500B8B9012101FA05F6721D8C
:103970009200204601F07EFD60B1C0E901560EE0E4
:1039800021220421204601F075FDE369F060DB6827
:10399000002BE4D1002070BD026843F825200023ED
:1039A000C0E90333F7E700BFD261000852620008A4
:1039B00070B5C66905460C4676B91020FFF702FFC0
:1039C0000246E86120B9094B09488F2101F034FD16
:1039D000C0E901660660C6603CB1EB696268DB68FD
:1039E00053F82210216043F8224070BDD2610008D4
:1039F000526200082DE9F0410D6907460C461E464B
:103A000001F1140C0020DCF8003099B202FB0161D6
:103A10001E0C0B0C02FB063389B2013001EB034193
:103A200085424CF8041B4FEA1346ECDC0EB3A36846
:103A3000AB4219DC616838460131FFF779FF8046F7
:103A400028B902460C4B0D48BA2101F0F5FC226959
:103A5000023204F10C0192000C3001F0D7FC214637
:103A60003846FFF7A5FF444604EB850301355E6148
:103A700025612046BDE8F0814162000852620008DD
:103A80002DE9F8430C4615461F4609220833064621
:103A900093FBF2F3002101229A4209DB3046FFF743
:103AA00047FF40B90246194B1948D32101F0C4FC25
:103AB00052000131F0E7089B4361092D4FF00103EB
:103AC000036116DD04F10909C8462C4418F8013BCE
:103AD0000146303B0A223046FFF78CFFA045F5D166
:103AE000A5F108044C442D1B6319BB4204DBBDE85F
:103AF000F8830A340925F6E714F8013B0146303B08
:103B00000A223046FFF776FFEEE700BF4162000869
:103B100052620008B0F5803F034636BF0304002020
:103B20001020B3F1807F3CBF1B020830B3F1805FEF
:103B30003CBF1B010430B3F1804F3CBF9B000230FF
:103B4000002B05DB13F0804F00F1010008BF20209F
:103B500070470368024613F007000BD0D90721D441
:103B6000980749BF5B089B08012013605CBF136086
:103B70000220704799B209B91B0C1020D9B209B9BB
:103B800008301B0A190704BF1B090430990704BF3A
:103B90009B080230D90703D45B0800F1010003D071
:103BA00013607047002070472020704710B50C4606
:103BB0000121FFF7BDFE024628B9054B054840F23A
:103BC000451101F039FC01234461036110BD00BFC0
:103BD00041620008526200082DE9F04F17460A6959
:103BE0003B699A42A8BF3B468946A4BF0F46994607
:103BF0003D69D9F810A0BB68796805EB0A06B342A5
:103C000085B0B8BF0131FFF793FE30B90246414B92
:103C100041484FF4B17101F00FFC00F1140404EBC2
:103C2000860E23460022734520D307F1140809F1BC
:103C3000140108EB850501EB8A030293EB1B153B8E
:103C400023F0030304331537BD4238BF0423019327
:103C5000029B03918B420CD8002E03DD5EF8043DDD
:103C6000002B55D0066105B0BDE8F08F43F8042B5A
:103C7000D9E7B1F800A0BAF1000F1FD0C446A146A1
:103C800000275CF8042BD9F800301FFA82FB9BB2A6
:103C90000AFB0B333B44D9F80070120C3F0C0AFBB3
:103CA000027202EB13429BB243EA0243654549F8B4
:103CB000043B4FEA1247E4D8019BE750039BB3F85B
:103CC00002900431B9F1000F20D023684746A44682
:103CD0004FF0000AB7F800B0BCF8022009FB0B2235
:103CE00052449BB243EA02434CF8043B57F8043B6E
:103CF0004FEA134ABCF8003009FB0A3303EB1243C6
:103D0000BD424FEA134AE5D8019AA35004349FE715
:103D1000013EA1E741620008526200082DE9F84324
:103D2000154612F0030207460E4607D0254C013A0D
:103D3000002354F82220FFF75DFE0646AD103DD06B
:103D4000FC697CB91020FFF73DFD0246F86128B9F7
:103D50001D4B1E4840F2B31101F06EFBC0E9014457
:103D60000460C460D7F81C80D8F808404CB940F211
:103D700071213846FFF71AFF0023C8F808000446EF
:103D800003604FF00009EB070AD53146224638465A
:103D9000FFF722FF314680463846FFF709FE4646C8
:103DA0006D100BD0206838B9224621463846FFF7FF
:103DB00013FF2060C0F800900446E4E73046BDE8F9
:103DC000F88300BF64630008D261000852620008F3
:103DD0002DE9F0470C464968236903EB6218A36894
:103DE000074691464FEA621A08F10106B3420BDB1F
:103DF0003846FFF79DFD054648B90246284B29483D
:103E00004FF4EF7101F018FB01315B00EEE7002386
:103E100000F1140100F110021846534533DB20690C
:103E20002AEAEA7A04F1140319F01F0901EB8A0166
:103E300003EB800C2BD0C9F1200E8A4600221868B3
:103E400000FA09F010434AF8040B53F8042B9C4580
:103E500022FA0EF2F3D8ACEB0403153B23F0030374
:103E6000043304F11500604588BF0423CA500AB129
:103E700008F10206013E38462E612146FFF798FD03
:103E80002846BDE8F08742F8040F0133C5E704393E
:103E900053F8042B41F8042F9C45F9D8EAE700BFFA
:103EA00041620008526200080A6903460069801AEC
:103EB00030B50ED11433143103EB820401EB8201CF
:103EC00054F8045D51F8042D954203D005D24FF00B
:103ED000FF3030BDA342F3D3FBE70120F9E7000038
:103EE0002DE9F74F89460646114648461446FFF726
:103EF000DBFF051E12D129463046FFF719FD0246A9
:103F000028B93F4B40F237213E4801F095FA012392
:103F1000C0E90435104603B0BDE8F08FBCBF4B4686
:103F2000A1463046D9F80410BABF1C460125002529
:103F3000FFF7FEFC024618B9314B40F24521E3E79A
:103F4000D9F810702669C56009F1100309F114054C
:103F500004F1140E00F1140B05EB87080EEB860636
:103F60000193D9464FF0000C019B5EF8040B53F807
:103F700004AF01931FFA8AF3194683B2CB1A000CDF
:103F80006344C0EB1A4000EB23409BB243EA00437A
:103F9000764549F8043B4FEA204CE5D8331B153BE6
:103FA00023F0030315340433A64238BF04231D4411
:103FB0005B441E462C4644450ED308F10301491BC1
:103FC00021F00301033DA84538BF00210B4453F8FD
:103FD000041D91B117619DE754F8041BE646080CD7
:103FE0001CFA81FC714400EB2C4089B241EA00418B
:103FF00046F8041B4FEA204CDDE7013FE7E700BF2E
:10400000416200085262000882B08DED000B019AF7
:104010000F4B1340A3F15073002B08DC5B42B3F14C
:10402000A07F4FEA235204DA4FF400231341002209
:1040300008E0A2F114031E2BDABF4FF00042DA4071
:10404000012200231946104641EC100B02B07047C4
:104050000000F07F2DE9F041066900F1140808EB3B
:104060008606371F56F8042C1046FFF753FDC0F1A3
:1040700020030A280B601B4915DCC0F10B0C22FA47
:104080000CF3B84543EA010534BF56F8083C002359
:10409000153002FA00F023FA0CF303431C4645ECFA
:1040A000104BBDE8F081B8453ABF56F8083CA6F180
:1040B000080700230B3812D0C0F1200123FA01F4C5
:1040C00082402243474542F07F558CBF57F8042C6D
:1040D00000228340CA4045F440151343DEE742EA1C
:1040E0000105DBE70000F03F2DE9F7430F46012112
:1040F00059EC108B1646FFF71BFC044630B90246FC
:10410000234B244840F20F3101F096F9C9F30A55C8
:10411000C9F313030DB143F480130193B8F1000305
:1041200023D068460093FFF714FDDDE90012D0B1FB
:10413000C0F1200302FA03F30B43C2406361019212
:10414000019BA361002B0CBF012202222261A5B1B9
:10415000A5F2334505443D60C0F13500306020468E
:1041600003B0BDE8F0836161EAE701A8FFF7F1FC65
:10417000019B636120300122E8E704EB8203A0F297
:10418000324038601869FFF7C5FCC0EB4210E5E724
:1041900041620008526200082DE9F04F85B0CDE978
:1041A000001002A9FFF756FF009803A955EC104B29
:1041B000FFF750FF019B1969009B1B69C91ADDE9D4
:1041C00002329B1A5BEC10AB03EB4113002BCEBF0A
:1041D0002A46C3EB03335A462F46D946CCBF02EBDF
:1041E000035702EB03594B46524620463946FCF72B
:1041F0002DFB41EC100B05B0BDE8F08F013970B517
:1042000049111469013102F1140300EB810103EB40
:104210008404051FA3420CD3A31A113B23F003030C
:104220001132A24288BF002318440023884205D3DC
:1042300070BD53F8046B45F8046FEBE740F8043B9E
:10424000F4E700F1140200694B11984210B511DB3C
:104250000ADD11F01F0107D052F8234024FA01F0C3
:1042600000FA01F18C420BD102EB8303934203D895
:10427000002010BD0346F7E753F8041D0029F5D0D0
:104280000120F6E770B504460D4645EC104B164686
:10429000FFF7BAFE51EC100B7EB1C5F30A53C3F120
:1042A0006B03002B09DD1B0503F17F55002405F589
:1042B000401522462B46FCF79FF941EC100B70BDD0
:1042C0002DE9F04F9FB00C46179200221A920590EC
:1042D0004FF0000A4FF0000B0A46199211782B2973
:1042E0004AD038D80D2932D8082932D800293BD0F5
:1042F00000220E92199D2A78302A40F0B2806A7806
:1043000002F0DF02582A6ED102930E9B01931AAB82
:1043100000938F4A05981BAB19A901F027F910F0FB
:104320000F06044605D0062E28D101350023199525
:104330000E93179B002B40F08E850E9BCBB15246FF
:104340000BF1004343EC102B1FB0BDE8F08F202988
:10435000CED10132C1E72D29CAD101210E91511CC4
:1043600019915278002AC5D1179B1994002B40F05F
:10437000708552465B46E5E70021EFE71A9A3AB1AD
:1043800035211CA8FFF73AFF1A990598FFF710FB93
:10439000013E1B9A042E06D8DFE806F014031D2008
:1043A0001400DDE91CABE10548BF4BF0004B2BF0DE
:1043B00000431B0D1B05002BBBD1FEF72DFB222359
:1043C0000360B6E7DDE91CA302F2334223F4801355
:1043D00043EA025BE7E7DFF880B1E4E76FF0004B08
:1043E0004FF0FF3ADFE7199B5A1C19925B78302B8C
:1043F000F9D0002B9DD0012300270893199B0C9323
:104400000B97B9460A2219980578A5F13003D9B25D
:10441000092928D94F49012200F0D6FF002832D0BF
:1044200000202A460A904D460346652A01D0452AB7
:1044300014D11DB9089A024396D00025199C621C1C
:10444000199262782B2A7AD02D2A7ED04FF0000C58
:10445000A2F13001092940F2858019944FF000083B
:10446000A5E00023C8E7B9F1080FD8BF0B9900F108
:104470000100DABF02FB01330B9302FB073709F19E
:1044800001091990BFE7199B5A1C19925A78B9F182
:10449000000F3BD00A904D46A2F13003092B12D9F0
:1044A0000123C2E7199B5A1C19925A780130302A0D
:1044B000F8D0A2F13103082B00F2D284199B0A90A4
:1044C00000200C930546303A00F1010318D00A99F8
:1044D00019440A912E464FF00A0E711CA1EB050CEF
:1044E000634515DC20EAE0702B18082B05F1010567
:1044F00005441ADC0B990A2303FB01230B930023C9
:10450000199A511C199152781846C5E74846CEE7CA
:10451000082E05DC0B9E0EFB06F60B960E46DCE71E
:104520001029D8BF0EFB07F7F8E70F2BDCBF0A23D3
:1045300003FB0727E3E700230A9301237AE74FF001
:10454000000CA21C1992A27882E74FF0010CF8E748
:1045500074640008AB6200080000F07F199A511CD7
:1045600019915278302AF9D0A2F1310108293FF689
:1045700075AF303A0992199A0F924FF00A08199ABA
:10458000561C19965278A2F1300EBEF1090F39D996
:104590000F99761A082E44F61F6803DC099988459E
:1045A000A8BF8846BCF1000F01D0C8F10008002D5B
:1045B0004ED1089908437FF4BCAE002B7FF4D4AEF3
:1045C000692A28D025DC492A25D04E2A7FF4CCAE92
:1045D0009A4919A801F0ECF900283FF4C5AE199BDF
:1045E0001B78282B2ED196491CAA19A801F0F4F9A2
:1045F000052827D11D9BDDF870A043F0FF4B4BF43D
:10460000E00B96E6099908FB0121A1F1300209921D
:10461000B5E76E2ADAE78B4919A801F0C9F9002835
:104620003FF4A2AE199B8849013B19A8199301F0E8
:10463000BFF910B9199B01331993DFF81CB24FF081
:10464000000A76E6814800F0EFFE5BEC10AB70E606
:104650000A9B0B98A8EB0303B9F1000F08BFA9460A
:10466000102D09932C46A8BF1024FBF74BFF092DF2
:1046700082468B4613DC099B002B3FF45AAE099B04
:1046800078DD162B5FDC724901EBC301D1E9000133
:1046900052465B46FBF7B0FF82468B4649E66C4BC1
:1046A00003EBC40353E91223FBF7A6FF8246384607
:1046B0008B46FBF727FF02460B4650465946FBF751
:1046C000E5FD0F2D82468B46D5DD099B2C1B1C4436
:1046D000002C40F3938014F00F030AD05C4901EBE7
:1046E000C30152465B46D1E90001FBF785FF8246D4
:1046F0008B4634F00F0473D0B4F59A7F49DD002463
:10470000A0460B94A146059ADFF84CB12223136012
:104710004FF0000A0B9B002B3FF40BAE1A99059843
:10472000FFF746F905984946FFF742F905984146D3
:10473000FFF73EF90B990598FFF73AF905982146DE
:10474000FFF736F9F5E5099AC5F125039342BCDB7D
:104750003F4CC5F10F0504EBC50152465B46D1E95C
:104760000001FBF749FF099B5D1B04EBC504D4E97D
:1047700000238FE71633A8DB0A9BA3EB0808344B12
:1047800003EBC808D8E9002350465946FCF75EF809
:1047900082E700232F4F2411504659461E46012C14
:1047A00021DC0BB182468B462A49ABF1547B01EBED
:1047B000C60152465B46D1E90001FBF71DFF264BBF
:1047C0000A460B4025498B42824698D8A1F58011B4
:1047D0008B4286BFDFF888B04FF0FF3A02F1547B7E
:1047E0000023089376E0E20704D5D7E90023FBF71E
:1047F00003FF0123013664100837D0E7F0D064428C
:1048000014F00F020AD0124B03EBC2035046594674
:10481000D3E90023FCF71AF882468B462411DFD037
:104820001F2C1FDD0024A0460B94A146059A2223CD
:104830004FF0000A4FF0000B13606BE7996100081E
:104840006064000891610008C86100080163000805
:1048500098630008706300080000F07F0000A07CEF
:10486000FFFFEF7F14F0100318BF6A23A94E0893CF
:10487000504659460023E70704D5D6E90023FBF745
:10488000BBFE0123641006F10806F4D10BB1824689
:104890008B46089BB3B1CBF30A52C2F16B03002BDA
:1048A00059460FDD1F2B56DD342BDEBF4FF0FF3393
:1048B000C2F14B0293404FF0000ACCBF4FF05C7B3B
:1048C00003EA010B0022002350465946FCF7FCF88E
:1048D0000028A7D10B9B00930C9905982B464A46BC
:1048E000FFF7CEF80B9000283FF409AF099A0A9B16
:1048F000002AA3EB0803A8BF00231293002422EA96
:10490000E2731693A0460B9B05985968FFF710F8C1
:10491000814600283FF4F7AE0B9B1A69023203F17F
:104920000C0192000C3000F071FD4BEC10AB0598BF
:104930001CAA1BA9CDE90CABFFF7D6FB1A900028E7
:104940003FF4E1AE05980121FFF730F9804648B900
:104950004FF00008D7E64FF0FF3202FA03F303EA04
:104960000A0AAFE71B9D1C9A002DABBF129B169B3A
:10497000169E129FACBFEF185E1B089BED1A1544E4
:10498000654B013D9D42C2F1360250DA5B1B1F2B85
:10499000A2EB03024FF001013DDC01FA03F3139394
:1049A00000231093BD18089BAF4216441E443B469B
:1049B000A8BF2B46B342A8BF3346002BC2BFED1A97
:1049C000F61AFF1A129B002B16DD414605981A466F
:1049D000FFF7A4F980460028BAD001461A9A059834
:1049E000FFF7FAF80A9000283FF48DAE1A9905985F
:1049F000FEF7DEFF0A9B1A93002D1DDC099B002B9E
:104A000023DD4946169A0598FFF788F98146E0B9F3
:104A10004FF0000977E6C5F17F4505F57F0505F5FF
:104A20007B45E23501FA05F310931391BAE70023B1
:104A3000109301231393B5E71A9905982A46FFF7B7
:104A4000C7F91A900028D9D15DE6002E07DD494646
:104A500005983246FFF7BCF981460028D8D0002FD0
:104A600008DD414605983A46FFF7B2F9804600282E
:104A70003FF449AE1A9905984A46FFF731FA0446C1
:104A800000283FF440AEC3680F930023C360414643
:104A9000FFF70AFA002845DA0F9B53EA0A036BD1A5
:104AA000CBF31303002B67D12BF000431B0D1B0529
:104AB000B3F1D66F60D9636913B92369012B5BDD4C
:104AC000214601220598FFF783F941460446FFF786
:104AD000EBF9002850DD2BF00043089A1B0D1B0555
:104AE000002A6AD0B3F1D66F67D8B3F15C7F7FF646
:104AF0009DAE0A4B504659460022FBF77DFD084B00
:104B00000B4082468B46002B7FF408AE059A222389
:104B1000136003E68864000802FCFFFF00005039C0
:104B20000000F07FCDF828B065D10F9ACBF31303C6
:104B30005AB39F4A93422BD1089B514603B39D4BD6
:104B40005A461340B3F1D46F4FF0FF321BD81B0D00
:104B5000C3F16B0302FA03F3994219D1964B0A9AF7
:104B60009A4202D101313FF4CEAD924B0A9A1A40DB
:104B700002F5801B4FF0000A089B002BB9D1CDE550
:104B80004FF0FF33E8E71346E6E753EA0A03A2D003
:104B9000109BDBB10A9A1342EED00F9B089A504645
:104BA0005946BBB1FFF76EFBDDE90C0153EC102B4E
:104BB000FBF76CFB82468B46DEE7A3F580136FEABA
:104BC000135B6FEA0B5B4FF0FF3AD5E7139B13EAD9
:104BD0000A0FE1E7FFF756FBDDE90C0153EC102B60
:104BE000FBF752FB0022002382468B46FBF76CFF4B
:104BF0000028C1D01AE641462046FFF7CDFA57EC0F
:104C0000106B00224FF0804330463946FBF770FFAF
:104C100000286FD00F9B002B7AD1BAF1000F58D12A
:104C20000A9BC3F31303002B5AD1644B0022304676
:104C30003946FBF753FF002859D130463946604BBF
:104C40000022FBF7D9FC06460F4607F10043069603
:104C50000793DDE90623574DCDE910230A9B1D403C
:104C6000584B9D4240F0B2800A9BA3F1547B4BEC21
:104C700010ABFFF7C9F9DDE9062351EC100BFBF788
:104C8000BBFC52465B46FBF701FB0B4649494E4ACB
:104C900019409142824642D90D9A474B9A4203D11C
:104CA0000C9B01333FF42FADDFF80CB14FF0FF3A0E
:104CB0001A990598FEF77CFE05984946FEF778FE9E
:104CC00005984146FEF774FE05982146FEF770FEF2
:104CD00019E6BAF1010F03D10A9B002B3FF4A6ADF0
:104CE0009FED2B7B354F8DED067B0026B1E7344FD2
:104CF0000026AAE7324B304639460022FBF77CFCFF
:104D00000F9B06460F46002B9FD0CDE90667A0E714
:104D10009FED217B8DED067B57EC176B99E703F137
:104D2000547B089BCDF828B0002BC1D12BF0004359
:104D30001B0D1B059D42BBD130463946FBF7A4FF36
:104D4000FBF72CFC02460B4630463946FBF79CFA33
:104D50000B460246CDE90C23CBF313060F9B46EA24
:104D60000A061E436FD00EA3D3E90023FBF7B6FE5D
:104D700000287FF4D3AC0CA3D3E90023DDE90C01B8
:104D8000FBF7CAFE002893D0C8E400BFAFF3008051
:104D9000000000000000F0BF000000000000F03F35
:104DA0009535A094FFFFDF3F35E5AF350000E03FCC
:104DB000FFFF0F000000F07FFFFFEF7F0000F03FDC
:104DC0000000E03F0000E07FFFFF9F7C089B23B3D3
:104DD000B5F1D46F21D828A3D3E900233046394652
:104DE000FBF786FEA0B139463046FBF7DDFE012811
:104DF00038BF0120FBF786FB0F9B06460F46FBB929
:104E000001F1004314901593DDE91423CDE910233B
:104E1000119B03F1D6635B1B11939DED0C0BDDE938
:104E200010ABFFF7F1F8504653EC102B5946FBF747
:104E3000E3FBDDE90C23FBF729FA82468B4670E79A
:104E4000CDE91467E0E70EA3D3E90023FBF746FEA4
:104E500098E700230E93179A199B1360FFF76DBA1A
:104E6000652A3FF468AB452A3FF465AB0123FFF7A1
:104E7000A0BB00BFAFF300800000C0FFFFFFDF4119
:104E80009535A094FFFFCF3F014BFFF719BA00BF44
:104E9000840A0020242B2DE9F0478646904601D84D
:104EA000012B06D1FDF7B8FD162303600020BDE8F5
:104EB000F08734480D462A4615F8014B065D16F07A
:104EC0000806F8D12D2C10D12C780126951C33F032
:104ED000100215D1302C0DD12A7802F0DF02582AA9
:104EE00008D16C78023510230AE02B2C04BF2C78F3
:104EF000951CECE7002BF6D1302C14BF0A230823B5
:104F000006F1004C0CF1FF3C0022BCFBF3F910460B
:104F100003FB19CAA4F13007092F0FD83C46A3425E
:104F20001BDD571C07D0814514D301D1A24511DBED
:104F300000FB0340012215F8014BEBE7A4F1410708
:104F4000192F01D8373CEAE7A4F16107192F04D8DB
:104F5000573CE4E74FF0FF32EDE7531C08D1222322
:104F6000CEF800306046B8F1000FA0D0691E06E010
:104F700006B14042B8F1000F99D0002AF6D1C8F826
:104F8000001094E7B1640008FFF784BF2DE9F047F3
:104F90008E681F46BE420B6882460C4690462DD84E
:104FA000B1F90C2012F4906F26D06569096905EB00
:104FB0004505A3EB010905EBD5757B1C4B446D1032
:104FC0009D4238BF1D46530527D52946FEF724FCD0
:104FD000064660B321694A4600F018FAA38923F413
:104FE000906343F08003A381266165614E44A5EB85
:104FF00009052660A5603E46BE4200D93E462068AF
:105000003246414600F0C6F9A3689B1BA3602368A3
:10501000334423600020BDE8F0872A4600F089FD74
:1050200006460028E0D121695046FEF781FB0C239B
:10503000CAF80030A38943F04003A3814FF0FF304A
:10504000E9E700002DE9F04F98468B891B069DB0DB
:1050500007460D46144610D50B6973B94021FEF77B
:10506000DBFB2860286130B90C233B604FF0FF3038
:105070001DB0BDE8F08F40236B610023099320230E
:105080008DF82930CDF80C803023DFF89C818DF825
:105090002A304FF0010923469A4613F8012B0AB132
:1050A000252AF9D1BAEB040B0BD05B4622462946E0
:1050B0003846FFF76BFF013000F0A780099A5A4489
:1050C00009929AF80030002B00F09F8000234FF0E7
:1050D000FF32CDE905230AF1010A049307938DF805
:1050E00053301A935446052214F8011B4E48FBF71F
:1050F0006FF8049AD8B9D00644BF20238DF85330F6
:10510000110744BF2B238DF853309AF800302A2B17
:1051100015D0079A544600204FF00A0C214611F88A
:10512000013B303B092B4BD9B0B1079214E0A0EB07
:10513000080309FA03F313430493A246D2E7039B3F
:10514000191D1B680391002BBBBF5B4242F002029A
:1051500007930793B8BF049223782E2B0AD1637864
:105160002A2B32D1039B1A1D1B68039243EAE37377
:1051700002340593DFF8C0A0217803225046FBF7E4
:1051800027F838B1049BA0EB0A0040228240134369
:105190000134049314F8011B24488DF828100622CA
:1051A000FBF716F8002836D0214B1BBB039B0733B7
:1051B00023F0070308330393099B334409936AE7F9
:1051C0000CFB02320C460120A8E7002301340593B2
:1051D00019464FF00A0C204610F8012B303A092AE4
:1051E00003D9002BC6D00591C4E70CFB012104466E
:1051F0000123F0E703AB00932A460E4B04A938467F
:10520000FCF790FC421C0646D6D1AB895B063FF505
:105210002DAF09982CE703AB00932A46054B04A950
:105220003846FCF717FFEDE7AD620008B7620008EB
:10523000251B00088D4F0008B3620008B1F90C204F
:105240002DE9F041160705460C4654D44B68002B57
:1052500002DC0B6C002B48DDE66A002E45D00023F3
:1052600012F480522F68216A2B6030D0626DA389BE
:10527000590705D56368D21A636B0BB1236CD21A38
:105280000023E66A216A2846B047431CA38906D159
:1052900029681D292BD82A4ACA40D60727D50022BB
:1052A0006260D9042269226004D5421C01D12B68B6
:1052B00003B96065616B2F60B9B104F14403994291
:1052C00002D02846FEF734FA002363630DE0012381
:1052D0002846B0470246501CC9D12B68002BC6D0C7
:1052E0001D2B01D0162B1ED12F60002022E043F091
:1052F00040031BB21BE00F69002FF6D093070E6826
:1053000008BF4B690F6018BF0023A6EB07088B602E
:10531000B8F1000FE9DD216AA66A43463A462846FD
:10532000B047002808DCB4F90C3043F04003A381F7
:105330004FF0FF30BDE8F0810744A8EB0008E7E735
:105340000100402038B50B6905460C4613B900250D
:10535000284638BD18B1036A0BB9FDF733FAB4F922
:105360000C30002BF3D0626ED00704D4990502D420
:10537000A06DFDF77CFB28462146FFF75FFF636EBB
:10538000DA070546E4D4A3899B05E1D4A06DFDF7B7
:105390006FFBDDE7884210B501EB020402D98442BD
:1053A000234607D8431EA14208D011F8012B03F869
:1053B000012FF8E7024401468A4200D110BD13F8DC
:1053C000014D02F8014DF7E710B56AB101398418B3
:1053D00010F8012B11F8013F9A4203D1A04201D0ED
:1053E000002AF5D1D01A10BD1046FCE738B5064D9D
:1053F0000023044608462B60FCF796FA431C02D1B2
:105400002B6803B1236038BD081300200A44914281
:1054100000F1FF3300D1704710B511F8014B03F8CC
:10542000014F9142F9D110BD9FED010B704700BFB4
:10543000000000000000F87F1FB514461A46094B13
:105440001B680546D8684CB1074B0091CDE9013483
:1054500006492B4600F0A8FB00F0B8FB044B1C46A5
:10546000F3E700BF340A0020C6620008D3620008D8
:105470000163000870B5A1FB025434B92946FEF758
:10548000CBF9064628B9304670BD0C2202600026D2
:10549000F9E72A462146FDF76DFAF4E70369B3EB15
:1054A000611F2DE9F0434FEA611200F1140445DD5C
:1054B00011F01F0104EB830604EB82050CD100F10F
:1054C00010072946B14234D39B1A9B00EA1E96422C
:1054D00038BF0023234415E054F82270C1F120089E
:1054E000CF4005F1040EA1467645F44615D89A1A28
:1054F0009200043A0135AE4238BF0022A318A750EB
:1055000007B104331A1BA3424FEAA20208BF0023CB
:10551000026108BF4361BDE8F083DCF800C00CFA0B
:1055200008FC4CEA070749F8047B5EF8047BCF408F
:10553000DAE751F804CB47F804CFC3E72346E1E7A5
:10554000A0F13003092B02D82038C0B27047A0F177
:105550006103052B01D84738F7E7A0F14103052B7C
:1055600001D82738F1E70020704700002DE9F04FFF
:1055700085B08A4602930B68019090469C1CA14618
:1055800014F8010B3028FAD0A9EB0303A3F1020BA6
:10559000FFF7D6FF0546002868D1A04901224846FA
:1055A000FFF712FF0746002867D199F80100264649
:1055B000FFF7C6FF002862D02346187830289946A6
:1055C00003F10103F9D0FFF7BBFFB0FA80F56D09D5
:1055D0004FF0010B4A46164601323078FFF7B0FF14
:1055E0000028F8D18D4901223046FFF7EDFE002852
:1055F0003FD144B9741C2246164601323078FFF779
:105600009FFF0028F8D1A41BA700337803F0DF0325
:10561000502B3ED173782B2B33D02D2B34D0711CD3
:1056200000240878FFF78CFF431EDBB2182B30D81C
:10563000A0F1100211F8010FFFF782FF00F1FF3C0B
:105640005FFA8CFCBCF1180F4FF00A031ED904B1AD
:1056500052421744CAF80010EDB1BBF1000F0CBF65
:1056600006250025284605B0BDE8F08F00252C460C
:10567000B0E7002CC7D12746C7E74E462F46012585
:10568000C3E70024B11CCCE70124FBE703FB0200C5
:10569000CEE73146DEE7A6EB0903013B2946072B9F
:1056A0000ADC0198FEF744F9044640B95C4B024617
:1056B000E4215C48FFF7C0FE01315B10EFE700F129
:1056C000140A002355469B46B14537D345F804BB21
:1056D000A5EB0A05AD1025615846FEF71BFA6D01D2
:1056E000D8F800602D1AB54254DDAD1B294620467E
:1056F000FEF7A7FD814678B16B1E591103F01F021A
:105700005AF821104FF0010909FA02F20A4203D0B7
:105710004B4536DC4FF0020929462046FFF7BEFE16
:105720002F44D8F80830BB4242DA01982146FEF7F0
:105730003FF90E9A00231360A32593E716F8012D75
:105740002E2A12D0202B04D145F804BB4FF0000BB9
:105750005B4630780393FFF7F3FE039B00F00F00E6
:1057600098404BEA000B0433AEE7B145EAD82B4929
:10577000039301223046FFF727FE039B0028E1D167
:10578000A2E7A91E2046FEF75CFD0028C2D04FF01C
:105790000309C1E709DA751B214601982A46FEF77D
:1057A00017FB7F1B044600F1140A4FF00009B8E70D
:1057B000D8F80450BD426FDDED1BAE4234DCD8F8A2
:1057C0000C30022B22D0032B24D0012B15D1AE425A
:1057D00013D1012E0BD1029AD8F8043013600123A3
:1057E0002361CAF800300E9B62251C603AE7711EE7
:1057F0002046FEF726FD0028EDD101982146FEF750
:10580000D7F80E9A0023136050252BE70F9B002B2F
:10581000F3D1E0E70F9B002BDDD1EEE7AB62000890
:1058200041620008026300086F1EB9F1000F30D119
:1058300027B139462046FEF704FD81467A1101233F
:105840005AF8222007F01F07BB4013422946204682
:1058500018BF49F00209FFF721FED8F80470761B43
:105860000225B9F1000F47D0D8F80C30022B15D023
:10587000032B17D0012B09D119F0020F06D0DAF84B
:10588000003049EA030919F0010F0ED145F0100567
:1058900032E04FF00109D1E70125E2E70F9BC3F1A8
:1058A00001030F930F9B002BF0D0D4F810B004F13C
:1058B00014034FEA8B0A03EB8B014FF0000C1846E0
:1058C00053F8042BB2F1FF3F1BD001320260022DCE
:1058D00004F114033CD1D8F80020013AB24209D1B6
:1058E0007111012253F8213006F01F0602FA06F664
:1058F0001E423AD145F020050E9B1C60029B1F60A2
:10590000B0E6994243F804CCD9D8A3689B4517DB8D
:10591000616801980131FEF70BF8814618B91A4BFE
:1059200002468421C5E62269023204F10C0192008C
:105930000C30FFF76BFD21460198FEF739F84C4615
:1059400023695A1C04EB8303226101225A61BEE7DA
:1059500022695A450BDD01212046FFF79FFDD8F84B
:1059600008300137BB42FFF6E0AE0125C2E716F072
:105970001F06FAD05344C6F1200653F8040CFEF774
:10598000C9F8B042E7DBF0E741620008C2F1080263
:10599000920070B5C2F120064368046803FA06F568
:1059A0002C43D340046040F8043F8842F4D370BDD8
:1059B00030B50368013311F8014B14B903600120BD
:1059C00030BD13F8012BA2F14105192D98BF2032EB
:1059D000A242F0D00020F3E72DE9F04F0B680168F8
:1059E0005E1102EB860613F01F0387B018BF043662
:1059F0000025371F82469046019346F8045CB9465D
:105A00003C460295AB464A784B1C039342B3104682
:105A100005910492FFF794FD002851D1049A05994D
:105A2000202A18D8029B9B4513DD4C4506D2072D32
:105A300004DC2A4649462046FFF7A8FF444552D9D0
:105A40000023A4F1040944F8043CCDF808B04C4606
:105A50001D460399D7E7292A57D10231CAF8001009
:105A6000BBF1000F51D04C4506D2072D04DC2A466D
:105A700049462046FFF78AFF444536D9A8F104027B
:105A8000234653F8041B42F8041F9F42F9D23B1BE4
:105A900023F0030304330134033EB44288BF0423DC
:105AA0004344002243F8042B9F42FBD23B681BB9BE
:105AB000474528D101233B60052007B0BDE8F08FA2
:105AC0000135082D0BF1010B06DD4445C1D900233A
:105AD00044F8043C0125043C226800F00F0040EA31
