:020000040800F2
:10000000000002207D130008CD130008CD13000866
:10001000CD130008CD130008CD1300080000000028
:10002000000000000000000000000000CD130008E8
:10003000CD13000800000000CD130008CD13000808
:10004000CD130008CD130008CD130008CD13000810
:10005000CD130008CD130008150F0008CD130008BC
:10006000CD130008CD130008CD130008CD130008F0
:10007000CD130008CD130008CD130008CD130008E0
:10008000CD130008CD130008CD130008CD130008D0
:10009000CD130008CD130008CD130008CD130008C0
:1000A000CD130008CD130008CD130008CD130008B0
:1000B000CD130008CD130008CD130008CD130008A0
:1000C000CD130008CD130008CD130008CD13000890
:1000D000CD130008CD130008CD130008CD13000880
:1000E000CD130008CD130008CD130008CD13000870
:1000F000CD130008CD130008CD130008CD13000860
:10010000CD130008CD130008CD130008CD1300084F
:10011000CD130008CD130008CD130008CD1300083F
:10012000CD130008CD130008CD130008CD1300082F
:10013000CD130008CD130008CD130008CD1300081F
:10014000CD130008CD130008CD130008CD1300080F
:10015000CD130008CD130008CD130008CD130008FF
:10016000CD130008CD130008CD130008CD130008EF
:10017000CD130008CD130008CD13000800000000C7
:08018000CD130008CD130008A7
:1001880080B487B000AF144B5B6C134A43F0010393
:100198005364124B7B61124B3B61124BFB60124B59
:1001A800BB60124B7B60124B3B60FB6800221A60FD
:1001B800BB6863221A607B684FF6FF721A603B685F
:1001C8001B6843F001023B681A6000BF1C37BD463C
:1001D8005DF8047B704700BF003802400000014012
:1001E8000C00014024000140280001402C0001407F
:1001F8001400014080B485B000AF78600F4BFB60FD
:100208000F4BBB60BB6800221A60FB681B6843F099
:100218000102FB681A6000BFBB681B687A689A42D3
:10022800FAD8FB681B6823F00102FB681A6000BF5C
:100238001437BD465DF8047B704700BF00000140DD
:100248002400014080B584B000AF78600023FB60D3
:1002580006E04FF47A70FFF7CDFFFB680133FB60CF
:10026800FA687B689A42F4D300BF00BF1037BD46D6
:1002780080BD80B500AF104B104A1A600E4B0122AA
:100288001A710D4B01225A710B4B00229A710A4BBD
:100298000022DA71084B01229A72074B00225A7227
:1002A800054B00221A72044B0722DA72024800F04A
:1002B8008BFE00BF80BD00BF1C000020003800403E
:1002C80080B500AF2F4B1B6B2E4A43F00803136316
:1002D8002D4B2E4A1A602C4B0D221A712A4B0122E3
:1002E8005A71294B00221A72274B0022DA71264BC9
:1002F80003229A71244800F0F9F9234B0C221A7151
:10030800214800F0F3F9204B0E221A711E4800F024
:10031800EDF9FFF735FF1E4800F0BDFFFFF7A9FF15
:1003280001211B4800F058FF0121194800F038FF4F
:1003380001220C21144800F02BFC4FF4FA60FFF75F
:1003480081FF00220E21104800F022FC3220FFF726
:1003580051FF0B220F490E4800F05AFF3220FFF7D9
:1003680049FF01220D21084800F012FC01220E214C
:10037800054800F00DFC4FF47A70FFF763FF00BFEB
:10038800DFE700BF0038024004000020000C0240F4
:1003980000380040D013000880B582B000AF034693
:1003A800FB71FB79002B17D13220FFF74BFF00219F
:1003B8000B4800F040FC0346002B0DD0094B0122EE
:1003C8001A700D21084800F01EFC084B1B78DBB2A0
:1003D8000133DAB2054B1A7000BF0837BD4680BD3D
:1003E800100000202C000020040000202D00002018
:1003F80080B400AF064BD3F88830054A43F4700345
:10040800C2F8883000BFBD465DF8047B704700BF66
:1004180000ED00E080B487B000AF344B9B6803F078
:100428000C033B613B69082B11D03B69082B44D86E
:100438003B69002B03D03B69042B04D03DE02C4BD7
:100448002C4A1A603DE02A4B2B4A1A6039E0274BA8
:100458005B689B0D03F00103FB60244B5B6803F0B2
:100468003F03BB60FB68002B0CD0234ABB68B2FB80
:10047800F3F31E4A52689209C2F3080202FB03F31F
:100488007B610BE01B4ABB68B2FBF3F3174A526867
:100498009209C2F3080202FB03F37B61134B5B680A
:1004A8001B0C03F0030301335B007B607A697B68F4
:1004B800B2FBF3F30E4A136003E00D4B0D4A1A60CA
:1004C80000BF0A4B9B681B0903F00F030B4AD35C60
:1004D8003B61074B1A683B6922FA03F3044A13602D
:1004E80000BF1C37BD465DF8047B704700380240EA
:1004F800000000200024F40040787D01DC1300088F
:1005080080B400AF00BFBD465DF8047B704780B47F
:1005180000AF00BFBD465DF8047B704780B483B070
:1005280000AF78600B46FB70FB78012B62D17B68CB
:10053800644A934206D1644B1B6B634A43F0010340
:100548001363B9E07B68614A934206D15E4B1B6B2B
:100558005D4A43F002031363AEE07B685C4A934252
:1005680006D1594B1B6B584A43F004031363A3E0AD
:100578007B68584A934206D1534B1B6B524A43F04F
:100588000803136398E07B68534A934206D14E4BA5
:100598001B6B4D4A43F0100313638DE07B684F4A91
:1005A800934206D1484B1B6B474A43F02003136321
:1005B80082E07B684A4A934206D1434B1B6B424A0E
:1005C80043F04003136377E07B68464A934206D1C1
:1005D8003D4B1B6B3C4A43F0800313636CE07B6824
:1005E800414A934268D1384B1B6B374A43F48073B6
:1005F800136361E07B68334A934206D1324B1B6B2D
:10060800314A23F00103136356E07B682F4A934273
:1006180006D12D4B1B6B2C4A23F0020313634BE0CE
:100628007B682B4A934206D1274B1B6B264A23F043
:100638000403136340E07B68264A934206D1224BA9
:100648001B6B214A23F00803136335E07B68224AB9
:10065800934206D11C4B1B6B1B4A23F010031363F8
:100668002AE07B681D4A934206D1174B1B6B164A3A
:1006780023F0200313631FE07B68194A934206D1D5
:10068800114B1B6B104A23F04003136314E07B6883
:10069800144A934206D10C4B1B6B0B4A23F0800380
:1006A800136309E07B68104A934205D1064B1B6B24
:1006B800054A23F48073136300BF0C37BD465DF809
:1006C800047B7047000002400038024000040240EA
:1006D80000080240000C02400010024000140240D2
:1006E80000180240001C02400020024080B586B07D
:1006F80000AF786000237B617B681B680121184686
:10070800FFF70CFF7B685B79032B20D87B685B794C
:100718001A467B681B795B0002FA03F37B617B68EE
:100728001B681A687B681B795B00032101FA03F3D5
:10073800DB4319467B681B680A401A607B681B68A4
:1007480019687B681B687A690A431A60CBE07B6882
:100758005B79042B17D14B4BDB687A681279114609
:1007680001228A401146474A0B43D360454B9B6898
:100778007A681279114601228A40D2431146414AC9
:100788000B40936035E07B685B79052B17D13D4BB7
:100798009B687A681279114601228A401146394AC3
:1007A8000B439360374BDB687A6812791146012254
:1007B8008A40D2431146334A0B40D36019E07B6824
:1007C8005B79062B15D12F4B9B687A6812791146F5
:1007D80001228A4011462B4A0B439360294BDB6860
:1007E8007A681279114601228A401146254A0B433C
:1007F800D3607B681B799B08FB747B681B7903F0CB
:100808000303BB747B681B681F4A93424ED07B6806
:100818001B681E4A934232D07B681B681C4A93426D
:100828002BD07B681B681B4A934224D07B681B68CB
:10083800194A93421DD07B681B68184A934216D008
:100848007B681B68164A93420FD07B681B68154A61
:10085800934208D07B681B68134A934201D108234E
:1008680025E0FF2323E0072321E006231FE00523DB
:100878001DE004231BE0032319E0022317E00123F2
:1008880015E000BF003C01400000024000040240A7
:1008980000080240000C0240001002400014024010
:1008A80000180240001C02400020024000237B7414
:1008B800594B5B6B584A23F4804353637A7CBB7C67
:1008C8009B0002FA03F1554AFB7C023342F82310DD
:1008D800534B1B687A681279114601228A401146E7
:1008E8004F4A0B4313607B689B791A467B681B79D8
:1008F8005B0002FA03F37B617B681B689A687B687C
:100908001B795B00032101FA03F3DB4319467B687B
:100918001B680A409A607B681B6899687B681B683B
:100928007A690A439A607B68DB791A467B681B7987
:100938005B0002FA03F37B617B681B68DA687B68FB
:100948001B795B00032101FA03F3DB4319467B683B
:100958001B680A40DA607B681B68D9687B681B687B
:100968007A690A43DA607B681B7A1A467B681B79C6
:1009780002FA03F37B617B681B685A687B681B7902
:10098800194601238B40DB4319467B681B680A40E4
:100998005A607B681B6859687B681B687A690A43D8
:1009A8005A607B685B79022B31D17B681B79DB0845
:1009B8003B747B681B7903F00703FB737B681B6838
:1009C8003A7C083253F82210FB7B9B000F2202FA74
:1009D80003F3DB4318467B681B683A7C0140083206
:1009E80043F822107B681B683A7C083253F82210BF
:1009F8007B685B7A1A46FB7B9B0002FA03F3184676
:100A08007B681B683A7C0143083243F8221000BF18
:100A18001837BD4680BD00BF00380240003801408D
:100A2800003C014080B483B000AF78607B684E4AD8
:100A380093420CD14D4B1B694C4A43F0010313619F
:100A48004A4B1B69494A23F00103136186E07B681E
:100A5800474A93420CD1454B1B69444A43F0020371
:100A68001361424B1B69414A23F00203136175E08D
:100A78007B68404A93420CD13C4B1B693B4A43F08C
:100A880004031361394B1B69384A23F004031361CB
:100A980064E07B68384A93420CD1344B1B69334A73
:100AA80043F008031361314B1B69304A23F00803F4
:100AB800136153E07B68314A93420CD12B4B1B697D
:100AC8002A4A43F010031361284B1B69274A23F075
:100AD8001003136142E07B68294A93420CD1234BEF
:100AE8001B69224A43F020031361204B1B691F4AEC
:100AF80023F02003136131E07B68224A93420CD132
:100B08001A4B1B69194A43F040031361174B1B69C1
:100B1800164A23F04003136120E07B681A4A934287
:100B28000CD1124B1B69114A43F0800313610F4B20
:100B38001B690E4A23F0800313610FE07B68134A98
:100B480093420BD1094B1B69084A43F48073136124
:100B5800064B1B69054A23F48073136100BF0C37E9
:100B6800BD465DF8047B7047000002400038024033
:100B78000004024000080240000C0240001002403D
:100B88000014024000180240001C024000200240ED
:100B980080B483B000AF78600B46FB701346BB701F
:100BA800BB78012B0CD17B681B689A69FB78012103
:100BB80001FA03F319467B681B680A439A610CE043
:100BC8007B681B689A69FB781033012101FA03F3EB
:100BD80019467B681B680A439A6100BF0C37BD46FB
:100BE8005DF8047B704780B483B000AF78600B4633
:100BF8007B807B681B687A885A6100BF0C37BD46CA
:100C08005DF8047B704780B483B000AF78600B4612
:100C1800FB707B681B685A69FB78012101FA03F3B2
:100C280019467B681B684A405A6100BF0C37BD46AD
:100C38005DF8047B704780B483B000AF78600B46E2
:100C4800FB707B681B681A69FB7822FA03F3DBB236
:100C580003F00103DBB218460C37BD465DF8047B90
:100C6800704780B483B000AF78607B681B681B69ED
:100C78009BB218460C37BD465DF8047B704700BF31
:100C880080B483B000AF334B1B68324A43F48033DF
:100C9800136000BF2F4B1B685B0C03F00103002B94
:100CA800F8D02C4B5B682B4A23F03F035360294B49
:100CB8005B68284A43F008035360264B5B68254A63
:100CC80023F4FF4323F040035360224B5B68214A1F
:100CD80043F4485353601F4B5B681E4A23F4403368
:100CE80053601C4B1B4A5B6853601A4B5B68194A7C
:100CF80043F480035360174B1B68164A43F0807314
:100D0800136000BF134B1B685B0E03F00103002B3D
:100D1800F8D0104B9B680F4A23F4805393600D4B17
:100D28009B680C4A43F4805393600B4B7B607B6851
:100D38001B6843F003027B681A60064B9B68054AF0
:100D480043F00203936000BF0C37BD465DF8047B97
:100D5800704700BF00380240003C024080B485B0B4
:100D680000AF03460A46FB711346BB71FB795B096A
:100D7800FB73FB7903F01F03BB73BB79012B0ED107
:100D8800124AFB7B52F82320BB7B012101FA03F3B3
:100D980018460E49FB7B024341F823200FE00B4A1B
:100DA800FB7B203352F82320BB7B012101FA03F39C
:100DB80018460649FB7B0243203341F8232000BF35
:100DC8001437BD465DF8047B704700BF00E100E0C2
:100DD80080B483B000AF00237B600B4BDB687B6083
:100DE8007A684FF6FF0313407B607B6843F0052366
:100DF80043F47A037B60044A7B68D36000BF0C37F6
:100E0800BD465DF8047B704700ED00E080B400AF9C
:100E1800054BDB681B0ADBB203F00703DBB218469D
:100E2800BD465DF8047B704700ED00E080B483B0F8
:100E380000AF03460A46FB711346BB71074AFB79AC
:100E48001846BB791B01D9B213180A4683F8002348
:100E580000BF0C37BD465DF8047B704700E100E039
:100E680080B584B000AF0346FB710B46BB711346D7
:100E78007B710023FB730023BB7300237B73FFF795
:100E8800C5FF0346FB73FB7B033B7B73BA797B7B14
:100E980002FA03F35AB27B7BC3F104030F2141FA30
:100EA80003F359B297F905300B405BB213435BB2B9
:100EB800BB73BA7B97F9073011461846FFF7B6FFA0
:100EC80000BF1037BD4680BD80B500AF084B5B69D9
:100ED80003F00103002B08D0054B5B69044A43F07B
:100EE800010353610020FFF757FA00BF80BD00BF20
:100EF800003C014080B483B000AF0346FB7100BFE3
:100F08000C37BD465DF8047B704700BF80B500AF65
:100F1800FFF7DAFF00BF80BD80B483B000AF786010
:100F28000B46FB70FB78012B20D17B68224A934249
:100F380006D1224B5B6C214A43F48053536435E05D
:100F48007B681F4A934206D11C4B1B6C1B4A43F417
:100F5800804313642AE07B681A4A934226D1174BD0
:100F68001B6C164A43F4004313641FE07B68124A63
:100F7800934206D1114B5B6C104A23F4805353649F
:100F880014E07B680E4A934206D10C4B1B6C0B4A4B
:100F980023F48043136409E07B680A4A934205D12D
:100FA800064B1B6C054A23F40043136400BF0C373F
:100FB800BD465DF8047B70470030014000380240B0
:100FC80000380040003C004080B584B000AF786035
:100FD8007B681B6801211846FFF79EFF0023FB6012
:100FE8007B681B799B00DB431A46FB681340FB6058
:100FF8007B681B799B00FA681343FB607B685B790D
:10100800012B04D1FB6823F40043FB6014E07B68E8
:101018005B79022B04D1FB6843F40043FB600BE0CF
:101028007B685B79032B07D1FB6823F40043FB60E3
:10103800FB6823F48043FB607B689B79DB02DB431E
:101048001A46FB681340FB607B689B79DB02FA68F1
:101058001343FB607B68DB79DB01DB431A46FB68E3
:101068001340FB607B68DB79DB01FA681343FB60A4
:101078007B681B7A5B00DB431A46FB681340FB6006
:101088007B681B7A5B00FA681343FB607B685B7ABA
:10109800DB431A46FB681340FB607B685B7A1A46A1
:1010A800FB681343FB607B689B7A5B02DB431A4651
:1010B800FB681340FB607B689B7A5B02FA6813430A
:1010C800FB607B68DB7ADB00DB431A46FB68134076
:1010D800FB607B68DB7ADB00FA681343FB607B68A4
:1010E8001B68FA681A6000BF1037BD4680BD80B41F
:1010F80083B000AF78600B46FB707B689A68FB781A
:101108001340002B01D0012300E0002318460C37C0
:10111800BD465DF8047B704780B483B000AF78604B
:101128007B681B4A93420CD11A4B5B6A194A43F4F9
:1011380080535362174B5B6A164A23F480535362F9
:1011480020E07B68144A93420CD1124B1B6A114A67
:1011580043F4805313620F4B1B6A0E4A23F48043F7
:1011680013620FE07B680D4A93420BD1094B1B6A4F
:10117800084A43F480531362064B1B6A054A23F45A
:101188000043136200BF0C37BD465DF8047B70470F
:10119800003001400038024000380040003C004068
:1011A80080B483B000AF78600B46FB70FB78012BEE
:1011B80006D17B681B6843F040027B681A6005E033
:1011C8007B681B6823F040027B681A6000BF0C37FD
:1011D800BD465DF8047B704780B483B000AF78608B
:1011E8000B46FB70FB78012B06D17B681B6843F428
:1011F80080727B681A6005E07B681B6823F4807244
:101208007B681A6000BF0C37BD465DF8047B7047E9
:1012180080B586B000AFF860B9601346FB7125E071
:1012280000BF0221F868FFF762FF0346002BF8D0E1
:10123800FB681B68DB0A03F00103002B0BD0BB68BB
:101248001B881A46FB68DA60FB79023BFB71BB68B6
:101258000133BB600AE0BB681B781A46FB68DA609A
:10126800FB79013BFB71BB680133BB60FB79002B49
:10127800D6D100BF8021F868FFF739FF0346012B5C
:10128800F8D0FB68DB687B61FB689B687B6100BF0B
:101298001837BD4680BD80B586B000AF78607B68E2
:1012A800194A93422BD101211848FFF737F9174BF8
:1012B800FB600D233B7402237B7405237B7500239D
:1012C8003B750023FB740323BB7407F10C0318461A
:1012D800FFF70CFA0C233B7407F10C031846FFF7D1
:1012E80005FA0E233B7407F10C031846FFF7FEF9C5
:1012F8000F233B7407F10C031846FFF7F7F900BFFB
:101308001837BD4680BD00BF0038004000040240C9
:10131800F41300080000002004000020040000204E
:101328003000002070B50F4B0F4DAB42A3EB050604
:1013380007D0B610002455F8043B01349847A6425C
:10134800F9D8FFF7DDF8094D094B5E1BAB424FEAB0
:10135800A60606D0002455F8043B01349847A64257
:10136800F9D870BDF4130008F4130008F41300084A
:10137800F4130008DFF834D0FFF73AF80C480D49A9
:101388000D4A002302E0D458C4500433C4188C42D8
:10139800F9D30A4A0A4C002301E013600432A2423E
:1013A800FBD3FFF7BFFFFEF78BFF7047000002205B
:1013B8000000002004000020F413000804000020AE
:0813C80030000020FEE70000E8
:1013D00068656C6C6F206C756361730000000000C1
:1013E00000000000010203040607080900000000D5
:0413F00001020304EF
:0413F4000024F400DD
:040000050800137D5F
:00000001FF
